:020000040800F2
:100000000050002021020008270200082B020008EF
:100010009D020008A1020008E9020008000000009B
:100020000000000000000000000000003103000894
:10003000350300080000000039030008E509000846
:100040004D0300084D0300084D0300084D03000850
:100050004D0300084D030008B90800084D030008CF
:100060004D0300084D0300084D0300084D03000830
:100070004D0300084D0300084D0300084D03000820
:100080004D0300084D0300084D0300084D03000810
:100090004D0300084D0300084D0300084D03000800
:1000A0004D0300084D0300084D0300084D030008F0
:1000B0004D0300084D0300084D0300084D030008E0
:1000C0004D0300084D0300084D0300084D030008D0
:1000D0004D0300084D0300084D0300084D030008C0
:1000E0004D0300084D0300084D0300080000000008
:1000F0000000000000000000000000000000000000
:1001000000000000000000005FF808F100B583B0B7
:1001100000F0AAF9304B314A1360314A1360314B79
:10012000314A32498B4204D21168196004330432D7
:10013000F7E72A4B1A682E4B9A4200D0FEE7284B6D
:100140001A682C4B9A42F9D1234B2B4A13602B4A45
:1001500013602B4B02E000221A600433294A9342B9
:10016000F9D3254B1B6813B9244B1B6803B1FEE779
:1001700000F086F9694601A800F022F9224C234BD1
:10018000E41AA4100025AC4214DC214C214BE41AE3
:10019000A4100025AC4213DC0099019800F04EFD3C
:1001A00005461D4C1D4BE41AA410002C0EDC2846FD
:1001B00000F0E2F8154B53F8253098470135E2E797
:1001C000144B53F8253098470135E3E7013C134BB6
:1001D00053F824309847E8E7BABADECA0000002096
:1001E0008400002000000020E46100088800002056
:1001F0007856341232547698880000200802002085
:10020000880000200C020020780300087803000812
:1002100078030008780300087803000878030008D2
:1002200008B5FFF773FF00BEFEE71EF0040F0CBF1A
:10023000EFF30880EFF309807146414A10472DE93A
:10024000F04182B004468846124B5E6B9F6B9D6AFC
:100250001B6B13F0020F03D00E4BDB6A002B0CDB81
:100260000D4800F0B5F8CDF800803B4632462946EF
:10027000204600F009F900BEFEE74BF6AB6100F046
:100280007DF90028ECD0034B4FF00042DA6202B057
:10029000BDE8F08100ED00E05816000800BEFEE762
:1002A0001EF0040F0CBFEFF30880EFF309807146D6
:1002B000244A10472DE9F04182B004468846084B95
:1002C0005E6B9F6B9D6A074800F082F8CDF8008056
:1002D0003B4632462946204600F0D6F800BEFEE7EF
:1002E00000ED00E0681600081EF0040F0CBFEFF3ED
:1002F0000880EFF309807146134A10472DE9F04159
:1003000082B004468846084B5E6B9F6B9D6A074827
:1003100000F05EF8CDF800803B4632462946204684
:1003200000F0B2F800BEFEE700ED00E07416000831
:1003300000BEFEE700BEFEE700BEFEE7704700001D
:100340003F020008B5020008FD02000800BEFEE7FB
:10035000E46100080000002088000020E46100083B
:100360000000000000000000880000200C020020B7
:08037000000000000000000085
:10037800FEE7000008B503460C4A12685AB10B4A5A
:100388001068033323F003030344094A934206D851
:10039800064A136008BD054A06491160EFE700F0F8
:1003A80099FC0C2303604FF0FF30F3E78C0000202A
:1003B800004C00200C02002001230360014B0B605D
:1003C800704700BF040000200FB400B583B004AB31
:1003D80053F8042B01938021064800F0ADFC002857
:1003E80003DD0146034800F037F803B05DF804EB7D
:1003F80004B07047940000202DE9F04385B004460E
:100408000F4643560BB10E461EE0042528462146EA
:10041800ABBE0446384605B0BDE8F08314F9011BAD
:1004280004AA1A4402F8101C0133AB42F6D304AAFA
:100438001344002203F8102C4FF00408E946404604
:100448004946ABBE8046761B002EE3D03546102EBB
:1004580028BF10250023E8E708B5FFF7CDFF08BD42
:1004680008B500F0FDF8024A024B9A6008BD00BFCB
:100478000000000800ED00E008B500F019F908BD1B
:10048800F8B504460D4617461E462748FFF79CFF59
:1004980021682648FFF798FF61682548FFF794FF11
:1004A800A1682448FFF790FFE1682348FFF78CFF15
:1004B80021692248FFF788FF61692148FFF784FF17
:1004C800A1692048FFF780FFE1691F48FFF77CFF1B
:1004D8001E48FFF779FF29461D48FFF775FF1D4C99
:1004E800E16A1D48FFF770FF216B1C48FFF76CFF9E
:1004F800E16B1B48FFF768FF15F0800F0AD115F470
:10050800004F0CD11748FFF75FFF06991648FFF711
:100518005BFFF8BD39461548FFF756FFEFE7314650
:100528001348FFF751FFEDE73C1500084C1500088C
:100538005C1500086C1500087C1500088C1500086F
:100548009C150008AC150008BC150008CC1500085F
:10055800D815000800ED00E0E8150008F8150008B7
:100568000816000838160008401600081816000873
:100578002816000883691A888A4201D0002070472B
:100588000268033A012A03D80233836101207047C5
:100598000020704782B00023019300932C4A13680F
:1005A80043F4803313602A4B1B6803F40033009331
:1005B800019B01330193009B1BB9019BB3F5A06F0D
:1005C800F1D1234B1B6813F4003F06D0012300939D
:1005D800009B012B04D002B0704700230093F7E77B
:1005E8001C4B1A6842F010021A601A6822F00302C3
:1005F8001A601A6842F002021A60A3F580535A681A
:100608005A605A685A605A6842F480625A605A6856
:1006180022F47C125A605A6842F4E8125A601A6846
:1006280042F080721A600A4B1B6813F0007FFAD000
:10063800074B5A6822F003025A605A6842F00202D5
:100648005A60034B5B6803F00C03082BF9D1C2E72F
:10065800001002400020024008B5FFF79BFF08BDCC
:1006680008B5104B1A6842F001021A6059680E4A20
:100678000A405A601A6822F0847222F480321A60A2
:100688001A6822F480221A605A6822F4FE025A601C
:100698004FF41F029A60FFF7DFFF044B4FF0006230
:1006A8009A6008BD001002400000FFF800ED00E06D
:1006B8001F4B5B6803F00C03042B15D0082B17D0D5
:1006C8001BB11C4B1C4A1A6002E01A4B1A4A1A60EA
:1006D800174B5B68C3F30313184AD35CDAB21549A6
:1006E8000B68D3400B607047124B134A1A60EFE750
:1006F8000F4A53685268C3F38343023312F4803FAE
:100708000AD00B4A526812F4003F0BD00C4A02FB85
:1007180003F3084A1360DBE7094A02FB03F3054ABF
:100728001360D5E7044A02FB03F3024A1360CFE7DC
:10073800001002401C00002000127A000C0000206B
:1007480000093D0030B4032813D9072808D90B281D
:100758000AD90F2822D8A0F10C03D8B2032309E044
:100768000438C0B2012305E0A0F10803D8B202237F
:1007780000E000230A4A023352F8234080000F2584
:10078800854024EA050442F8234052F8234001FA40
:1007980000F0204342F8230030BC70470023E9E70B
:1007A8000000014010B4012824D018B1022841D01B
:1007B80010BC7047072910D90F29F9D8A1F10804EE
:1007C800E4B2A4000F23A3402A48016821EA0303E6
:1007D80002FA04F119430160EAE789000F2303FADA
:1007E80001F0254C236823EA000302FA01F11943BA
:1007F8002160DDE7072910D90F29D9D8A1F1080010
:10080800C0B280000F2383401C4C216821EA0303F7
:1008180002FA00F119432160CAE789000F2303FA9D
:1008280001F0174C236823EA000302FA01F1194387
:100838002160BDE7072910D90F29B9D8A1F108030C
:10084800DBB29B000F2098400E4C216821EA000083
:1008580002FA03F101432160AAE789000F2303FA92
:1008680001F0094C236823EA000302FA01F1194355
:1008780021609DE70408014000080140040C014084
:10088800000C01400410014000100140044B1A689C
:1008980042F001021A60DA6842F00102DA60704739
:1008A80000040140014B1860704700BF140100208C
:1008B80008B5044B1B689847034A536943F0010382
:1008C800536108BD1401002000040140014B024A95
:1008D8001A6070470CED00E00005FA051F2809D9D9
:1008E8003B2806D82038C0B2012303FA00F0044B95
:1008F80018607047012303FA00F0024B1860704734
:1009080004E100E000E100E0034B4FF480321A609C
:10091800043301221A607047001002401F291CD8B6
:1009280001280BD010B1022810D07047012303FA18
:1009380001F10A4A13680B4313607047012303FA55
:1009480001F1074A13680B4313607047012303FA48
:1009580001F1044A13680B431360704714100240F6
:100968001C10024018100240014B00221A60704708
:1009780010E000E0074B58601A6842F001021A6064
:10098800054A1160054A002111701A6842F00202F6
:100998001A60704710E000E0180100201C010020D8
:1009A800074B58601A6842F001021A60054A116044
:1009B800054A012111701A6842F002021A60704754
:1009C80010E000E0180100201C010020024B5868CC
:1009D8009B68C01A704700BF10E000E008B50A4BDA
:1009E8001B785BB9094B1A6822F002021A601A6870
:1009F80042F001021A6000225A609A60044B1B6898
:100A08009847024B1B6808BD1C01002010E000E05D
:100A180018010020084B1A6841F263539A4205D81E
:100A2800054B1B68054AD256054B1A60024A1368E3
:100A380001331360704700BF2001002084160008AE
:100A48000C080140084B1A6840F6B4739A4205D85E
:100A5800054B1B68054AD256054B1A60024A1368B3
:100A680001331360704700BF24010020E82B000801
:100A78000C080140084B1A6841F269439A4205D8AC
:100A8800054B1B68054AD256054B1A60024A136883
:100A980001331360704700BF28010020A03B000805
:100AA8000C080140084B1A6841F2A4139A4205D871
:100AB800054B1B68054AD256054B1A60024A136853
:100AC80001331360704700BF2C0100200C50000850
:100AD8000C08014038B50E4B1B7883B10D4C2578B6
:100AE800EDB2FFF773FF0C4B43F825000B490C4898
:100AF800FFF740FF23780133DBB2237038BD074985
:100B08000748FFF737FF024B01221A70F6E700BFCC
:100B1800FA010020F901002030010020AD0B000887
:100B280040420F0008B5164B1B78DBB2162B16D0C7
:100B38000BD9182B1BD05E2B18D112497D20FFF73B
:100B48002FFF114B00221A6010E00C2B0ED10F4919
:100B58007D20FFF725FF0E4B00221A6006E00D49A5
:100B68007D20FFF71DFF0C4B00221A6008BD0B49C2
:100B78007D20FFF715FF0A4B00221A60F6E700BF39
:100B8800F8010020AD0A00082C0100204D0A0008D9
:100B9800240100201D0A0008200100207D0A000809
:100BA8002801002008B51F4B00221A701E4B1A6836
:100BB80042F20F739A422DD91B4B1A6843F2B06365
:100BC8009A4227D8002309E0012202FA01F11548C8
:100BD800027822EA010202700133DBB2072B17D830
:100BE800194603F11100104A52F82020B2F5FA6FA5
:100BF800EAD30D4A52F8200040F6FC029042E3D8AE
:100C080001229A40074801781143C9B20170E3E70D
:100C1800FFF788FF0023054A1370034A1360044A4C
:100C2800137008BDF801002030010020FA010020EF
:100C3800F901002008B5FFF767FE02210846FFF713
:100C48006DFE03210220FFF769FE00210220FFF755
:100C580065FE042200210120FFF7A4FD02220021E5
:100C68000846FFF79FFD022201210020FFF79AFDA9
:100C7800022211460020FFF795FD022203210020E1
:100C8800FFF790FD022204210020FFF78BFD0222CE
:100C980005210020FFF786FD022206210020FFF72C
:100CA80081FD022207210020FFF77CFD0848FFF79D
:100CB800F9FDFFF7EBFDFFF709FE0620FFF70EFE33
:100CC80001210020FFF73EFDFFF74EFEFEE700BFC3
:100CD800DD0A0008014B1868704700BF200000209B
:100CE80030B5141E05469BB0184605DA8B234FF025
:100CF800FF302B601BB030BD4FF40273ADF80C30E1
:100D08000CBF234604F1FF33029305934FF6FF739C
:100D180000910491ADF80E3002461E9B69462846A4
:100D280000F072F8431CBCBF8B232B60002CE1D071
:100D38000022009B1A70DDE707B5009313460A46A8
:100D4800014603480068FFF7CBFF03B05DF804FBDA
:100D5800200000202DE9F0478E6882469E420C460E
:100D68009046994637D88A8912F4906F31D0022379
:100D7800256809696F1A656905EB450595FBF3F563
:100D880009F101033B449D4238BF1D46530530D548
:100D9800294600F035FB064650B90C234FF0FF30CA
:100DA800CAF80030A38943F04003A381BDE8F08767
:100DB8003A46216900F0B4FAA38923F4906343F01A
:100DC8008003A38126613E4426604E466561ED1B83
:100DD800A5604E4500D94E4632464146206800F08F
:100DE800AAFAA36800209B1BA36023681E44266000
:100DF800DCE72A4600F05EFB06460028E2D12169BE
:100E0800504600F0B1FAC8E72DE9F04F9DB00393C2
:100E18008B8980461D060C4616460FD50B696BB9A3
:100E2800402100F0EDFA2060206128B90C23C8F8B1
:100E380000304FF0FF30C7E040236361002309937F
:100E480020238DF8293030234FF0010B8DF82A30FC
:100E580037463D4615F8013B0BB1252B3ED1B7EB84
:100E6800060A0BD05346324621464046FFF772FF2A
:100E7800013000F0A480099B534409933B78002B70
:100E880000F09D8000234FF0FF32CDE90523049345
:100E980007938DF853301A932F46052217F8011B34
:100EA8004F4800F02FFA049BD0B9D90644BF20223E
:100EB8008DF853201A0744BF2B228DF853202A7827
:100EC8002A2A15D02F4600200A25079A394611F8F4
:100ED800013B303B092B4DD9B8B10FE02F46B8E79D
:100EE8003F4A3D46801A0BFA00F018430490D3E7B6
:100EF800039A111D12680391002A01DB079204E08E
:100F0800524243F00203079204933B782E2B0CD1F4
:100F18007B782A2B33D1039B02371A1D1B68039257
:100F2800002BB8BF4FF0FF3305932E4D03223978BD
:100F3800284600F0E7F938B14023401B03FA00F0D7
:100F4800049B0137034304933978062226487E1C04
:100F58008DF8281000F0D6F9002838D0234B13BBA1
:100F6800039B073323F0070308330393099B4B4480
:100F780009936DE705FB023201200F46A6E700231F
:100F88000A25194601370593384610F8012B303ADF
:100F9800092A03D9002BC8D00591C6E705FB012112
:100FA80001230746F0E703AB00932246104B04A940
:100FB8004046AFF30080B0F1FF3F8146D6D1A38908
:100FC8005B063FF536AF09981DB0BDE8F08F03AB5F
:100FD80000932246064B04A9404600F081F8EAE750
:100FE800B1610008B7610008BB610008000000009B
:100FF8005D0D00082DE9F04791461F468A680B6988
:1010080006469342B8BF1346C9F8003091F843200A
:101018000C46DDF8208012B10133C9F8003023688E
:10102800990642BFD9F800300233C9F80030256864
:1010380015F0060507D104F1190AE368D9F800206C
:101048009B1AAB4229DC94F843302268003318BF5E
:10105800012392062ED404F1430239463046C04794
:10106800013021D02368E56803F00603042B18BF7C
:101078000025D9F800204FF0000908BFAD1AA36871
:10108800226908BF25EAE5759342C4BF9B1AED188B
:101098001A344D451AD1002008E00123524639463A
:1010A8003046C047013003D14FF0FF30BDE8F0872C
:1010B8000135C2E73020E11881F843005A1C94F842
:1010C80045102244023382F84310C4E70123224624
:1010D80039463046C0470130E6D009F10109D8E762
:1010E8002DE9F04301F1430C0C46097E85B06E29C9
:1010F8001746064698460C9A00F0B38022D8632912
:1011080036D00AD8002900F0B980582900F0838029
:1011180004F1420584F8421032E0642901D06929BB
:10112800F6D120681368050603F104012AD51B6867
:101138001160002B03DA2D225B4284F843206F48AC
:101148000A2239E0732900F09D8008D86F2920D041
:101158007029DDD1236843F02003236003E075295B
:1011680017D07829D4D17823654884F8453055E0DC
:10117800136804F14205191D1B68116084F8423098
:1011880001238CE01B6810F0400F116018BF1BB2E0
:10119800CFE713682568181D1060280601D51B685D
:1011A80002E06806FBD51B886F2914BF0A220822B3
:1011B8005248002184F843106568002DA560C0F2EC
:1011C8009580216821F004012160002B3DD1002D7C
:1011D80040F08E806546082A0BD12368DB0708D5C6
:1011E800236962689A42DEBF302305F8013C05F1A5
:1011F800FF35ACEB05032361CDF800803B4603AA1D
:1012080021463046FFF7F6FE01304DD14FF0FF3052
:1012180005B0BDE8F083394884F8451013682168A3
:101228001D1D1B6815600A060BD5CA0744BF41F08F
:10123800200121601BB9226822F0200222601022BE
:10124800B7E74D0648BF9BB2EFE76546B3FBF2F13F
:1012580002FB1133C35C05F8013D0B460029F5D1AB
:10126800B9E713682568181D6169106028061B68AE
:1012780001D5196002E06A06FBD51980002365468E
:101288002361B9E71368191D11601D6862680021A0
:10129800284600F037F808B1401B60606368236196
:1012A800002384F84330A7E723692A4639463046A5
:1012B800C0470130AAD023689B0713D4E068039B7A
:1012C8009842B8BF1846A3E701234A463946304634
:1012D800C04701309AD00135E368039A9B1AAB42A4
:1012E800F2DCEBE7002504F11909F5E7002BACD196
:1012F800037804F1420584F842306CE7C2610008C3
:10130800D361000810B5C9B202449042034601D126
:10131800002303E01C7801308C42F6D1184610BD3A
:1013280010B5431E0A44914200D110BD11F8014B7B
:1013380003F8014FF7E7884210B501EB020307D81D
:10134800421E99420AD011F8014B02F8014FF8E702
:101358008342F5D98118D21AD34200D110BD13F8AF
:10136800014D01F8014DF7E738B50546002943D08E
:1013780051F8043C0C1F002BB8BFE41800F0D0F85B
:101388001E4A1368104633B9636014602846BDE8E6
:10139800384000F0C6B8A3420BD9216862189342BE
:1013A80001BF1A685B685218226063600460EDE749
:1013B80013465A680AB1A242FAD919685818A042C5
:1013C8000BD120680144581882421960DED1106898
:1013D8005268014419605A60D8E702D90C232B607F
:1013E800D4E7206821188A4201BF11685268091899
:1013F800216062605C60C9E738BD00BFFC01002065
:1014080070B5CD1C25F0030508350C2D38BF0C250B
:10141800002D064601DBA94203D90C2333600020C6
:1014280070BD00F07DF8214A1468214691B9204C1E
:1014380023681BB9304600F063F82060294630461F
:1014480000F05EF8431C24D10C233046336000F0D2
:1014580068F8E4E70B685B1B18D40B2B0FD90B60FB
:10146800CC18CD50304600F05CF804F10B00231D79
:1014780020F00700C31AD3D05A42E250D0E74B6895
:101488008C4216BF636013600C46EBE70C46496854
:10149800CCE7C41C24F00304A04205D0211A30462E
:1014A80000F02EF80130CFD02560DBE7FC010020EA
:1014B80000020020F8B5074614460E4621B9BDE8DB
:1014C800F8401146FFF79CBF22B9FFF74DFF2546AC
:1014D8002846F8BD00F026F8A0420FD2214638462B
:1014E800FFF78EFF05460028F2D031462246FFF767
:1014F80017FF31463846FFF737FFE9E73546E7E794
:1015080038B50023054C054608462360FEF732FF30
:10151800431C02D1236803B12B6038BD04020020AC
:101528007047704751F8043C181F002BBCBF0B587C
:10153800C0187047537461636B206672616D653AB9
:101548000A000000205230203D2020253038580A5B
:1015580000000000205231203D2020253038580A54
:1015680000000000205232203D2020253038580A43
:1015780000000000205233203D2020253038580A32
:101588000000000020523132203D20253038580A12
:1015980000000000204C52203D2020253038580AF9
:1015A80000000000205043203D2020253038580AF4
:1015B8000000000020505352203D20253038580AA2
:1015C800000000004653522F4641523A0A000000DC
:1015D8002043465352203D2020253038580A000029
:1015E8002048465352203D2020253038580A000014
:1015F8002044465352203D2020253038580A000008
:101608002041465352203D2020253038580A0000FA
:10161800204D4D464152203D20253038580A0000C3
:101628002042464152203D2020253038580A0000EB
:101638004D6973630A000000204C522F4558435FE0
:1016480052455455524E3D20253038580A00000066
:101658005B486172644661756C745D0A0000000045
:101668005B4275734661756C745D0A005B55736106
:1016780067654661756C745D0A0000007F7F7F7F37
:101688007F7F7F7F7F7F7F7F7F7F7F7F7F7F7F7F62
:101698007F7F7F7F7F7F7F7F7F7F7F7F7F7F7F7F52
:1016A8007F7F7F7F7F7F7F7F7F7F7F7F7F7F7F7F42
:1016B8007F7F7F7F7F7F7F7F7F7F7F7F7F7F7F7F32
:1016C8007F7F7F7F7F7F7F7F7F7F7F7F7F7F7F7F22
:1016D8007F7F7F7F7F7F7F7F7F7F7F7F7F7F7F7F12
:1016E8007F7F7F7F7F7F7F7F7F7F7F7F7F7F7F7F02
:1016F8007F808080808080808080808080808080E3
:1017080080808080808080808080808080808080D1
:10171800808080807F807F808080808080808080C3
:101728008080808080807F808080808080808080B2
:10173800808080808080807F808080808080807FA3
:101748007F7F7F7F7F7F7F7F7F7F7F7F7F7F7F7FA1
:101758007F7F7F7F7F7F7F7F7F7F7F7F7F7F7F7F91
:101768007F7F7F7F7F7F7F7F7F7F7F7F7F7F7F7F81
:101778007F7F7F7F7F7F7F7F7F7F7F7F7F7F7F7F71
:101788007F7F7F7F7F7F7F7F7F7F807F7F7F7F7F60
:101798007F7F7F7F7F7F7F7F7F7F7F7F7F7F7F7F51
:1017A8007F7F7F7F7F808080808080808080808036
:1017B8008080808080808080808080808080808021
:1017C8008180808080808080808080808080808010
:1017D8008080808080808080808080808080808001
:1017E80080808080808080807F7F7F7F7F7F7F7FF9
:1017F8007F7F7F7F7F7F7F7F7F7F7F7F7F7F7F7FF1
:101808007F7F7F7F7F7F7F7F7F7F7F7F7F7F7F7FE0
:101818007F7F7F7F7F7F7F7F7F7F7F7F7F7F7F7FD0
:101828007F7F7F7F7F7F7F7F7F7F7E7F7F7F7F7FC1
:101838007F7F7F7F7F7F7F7F7F7F7F7F7F7F7F7FB0
:101848007F7F7F7F7F7F7F7F7F807F7F7F807F7F9E
:101858008080807F807F7F7F7F7F7F7F7F7F7F7F8C
:101868007F8080807F808080808080808080807F73
:10187800808080808080808080808080818080805F
:101888008080808080808080808080807F80808051
:10189800808080808080807F7F7F807F7F7F807F47
:1018A800807F7F7F7F807F7F7F807F7F7F80807F3B
:1018B8007F7F7F7F7F7F7F7E7F7F7E7E7F7F7F7E34
:1018C8007E7F7F7F7F7F7F7F7F7E7F7F7F7F7F7F22
:1018D8007F7F7F7E7E807F7F807F7E7F7F7F7F7F11
:1018E8007F807F7F7F7F7F7E807F7F7F7F7F7F7D01
:1018F8007F7F7F7F7F807F7F7E7F7E7F7F807F7FF0
:10190800807F7E7F807F7F7F7F8080807F807F7FDA
:10191800807E8080818080807F80808080818080C0
:101928008080808080808180808080807F808080AF
:1019380080808081807F7F81807F7F7F80807F80A3
:1019480081807F7F807E7F81817F7F807F7F807F96
:101958007F827E7F8081817F807F7F808180807F82
:101968007E7F807F7F7F807E7E7F80807F7E7F7F7F
:101978007E7E7E7F7F817E7E7F7F807D7C7F827F73
:101988007E80807D7B7F7F81807F80807F7B808160
:101998007D7B83827E7C7F82817D7B817F8180804D
:1019A8007D7C7C808282817E7D7E837E84827A7843
:1019B8007F7F7E808489847E7C7E7C80807F7E7D24
:1019C8007D818182817E7B7E828086827A7A7F7A1F
:1019D8007E8485888A7C778083837B7A7D81807EFC
:1019E80080837F7B7C85848380767A7C83848587EB
:1019F8008C8676758086827B797F82807C7C7D80F0
:101A08007E7F88877E7A74747B82898787898877C6
:101A1800727A86867E7A7D83817D797F7E7F7D85D9
:101A280088837C747576848782878F8574758087B0
:101A380083787880848279797C817F8085868077B5
:101A480072717F888384908B79737885847C7A7FA0
:101A580085857E74787E838385867F797571768A9D
:101A680087858F8C7E75767D85807D7F848781755F
:101A7800757C82878786807C757272858E88898E50
:101A88008376757583847F7D8082857C73767E8579
:101A9800868682807A736E798A89878F897A777643
:101AA8007D86827C7E82868078777A848886828129
:101AB8007C766F758789898E897E77757981857D32
:101AC80080828483787579828988847E7B796F7433
:101AD80083868C908A7E7776797F7F8081808682E4
:101AE800797377808989837D7A786E7481878D9000
:101AF8008A807776787F7F808381878279747881FE
:101B08008A8C857D7C766E777E8590948A7D7876C2
:101B18007B7D7F808086868076757A838A89827DC0
:101B2800796F73797E889392847B75767C7E807FCB
:101B38008587847973787E888B86817A7274767CBF
:101B48008590928A817775777E7E818686847B767A
:101B5800767D86888682777373767C87908E8C8371
:101B68007B73777B7C848889817C7979818586867B
:101B78007F77747277818E8F8E877E77757A78817A
:101B8800858A857E7B787D838787817B7771767C64
:101B9800888E918B827C7476757E848A867F7C7829
:101BA8007D818687817D7573747A858A908D897D1C
:101BB8007772737A848A86817A787D828785807B3A
:101BC8007575767D838A8E8F89807670727B84881E
:101BD80086807B797E8185817F797776787E828A17
:101BE8008D8E877E7471757E8485837F7D7E8182EC
:101BF8007F7D7978787C7F8185898B89857C7574F0
:101C0800797F8485817F808384807D7675767D82E7
:101C18008388878A88857D77767A7F82837F7F80AD
:101C28008586857E7672727B8186898A8887857D9E
:101C380078767A7E83837F7E7F8485867E777374C9
:101C48007A7F85878A898A847D78787A7E8281807E
:101C58007F828485827B7673777C82868888878674
:101C6800817C797A7A7D7F807F838384847E787390
:101C780075777E8488888887837F7C7B7B7C7C7E65
:101C88007D80828485827D7676757A80858788884E
:101C980084817D7D7B7C7C7D7C7E808284827F7953
:101CA80078767A7E8385868785827F7E7C7C7C7D3C
:101CB8007D7F818284817F7A79787B7F838586871F
:101CC80084827F7E7C7C7C7D7D80818283807D791F
:101CD80079797D8183858685848281807E7D7D7DFD
:101CE8007D7F808283807D7A78797C8083848685F5
:101CF8008382807F7D7C7C7D7E808081817E7B7AF3
:101D08007A7B7D8183848584848382817F7D7D7CC9
:101D18007D7F818382807C7A797B7E8183848584C0
:101D2800848382807F7E7D7C7D7E8081817F7C7BB9
:101D38007A7B7D7F81838484838381807E7C7C7BA6
:101D48007D7E8080807D7C7B7A7C7E80818383839E
:101D580082838281807E7D7C7D7E8081807F7D7C88
:101D68007B7C7D8081838483828181807F7E7E7D70
:101D78007D7E7E807F7F7D7D7C7C7D7F8081838270
:101D8800828281807F7E7D7D7D7F7F817F7F7C7C5D
:101D98007C7D7F7F818183838383838280807E7E35
:101DA8007D7F7F8181807E7C7D7C7E7F8181828337
:101DB8008283828281807F7D7C7D7E808281807D1E
:101DC8007C7C7C7E7F818183838382818180807E0D
:101DD8007D7C7D7E808282807D7C7C7C7E7F818212
:101DE800838483828180807F7E7D7C7C7D7F8181EE
:101DF8007F7D7C7B7C7D7E808183848382817F7FE5
:101E08007F7D7C7B7B7D7F8182807D7B7A7B7C7EF6
:101E18007F8183848483828080807F7D7B7A7B7FBF
:101E2800838483807C7A7B7D7E808182848685839F
:101E380081807F7F7E7C7A797B7F838583817C7AB2
:101E48007A7C7D7F818284858683817F7F7F7F7C8A
:101E58007A78797D828685837E7C7B7E7F8081828D
:101E68008586878582807F7F7F7E7A78787C828668
:101E78008784807C7B7B7E807F8183868787838045
:101E88007E7E7F7D7B7776787F858888837E7A7A69
:101E98007B7C7E7F8083858887837F7C7D7D7E7B3E
:101EA8007875777D848A8A87817B78787A7C7F8148
:101EB8008283858785837F7B7A7C7D7C7A77787C33
:101EC80084898B88827D787A7A7B7B7E80838788F9
:101ED80087847F7D7B7C7C7B7977797D83878B8802
:101EE800837F7B797879797C7E8488898884837FED
:101EF8007D7B7A7A797C7B7E7E8285898A878079E8
:101F08007776787A7D7F84888D8C88817D7C7B78D4
:101F180077797E8183817E7E8187888780797474D2
:101F2800787C8085878A8A8B867F7A76787B7D7DA8
:101F38007D7D8181827E7D7E848989837D78787AA2
:101F48007B7C7C84888D8B888079777578787B7D9D
:101F5800808484847E7B7A7E848787817D79777884
:101F68007B7D81858C8C89837D7A7576777E81846B
:101F780083818282827D7A787C838888827C787863
:101F880079797C7F878A8F8B827B747774787C825F
:101F98008886847B7A7C7D7E7A7B7E858B89847D2E
:101FA8007A7779797B7F858A8A8A837B7675797750
:101FB8007C7F85888481787B7C81807D7E7F888A10
:101FC80088817A79767A7B7D83868D8888807A770E
:101FD800757C7A7F818688817C787B7F81827D7E13
:101FE80080878A86817A7876797A7E83888B8985D4
:101FF8007F7D7776787D8182838283807B797B8001
:102008008585847E7E8185888480797877797B7ED2
:1020180085868985847F7B79747A7E84817F7E7EBC
:10202800827F7D7B7D8283827F7C80858A887F79A1
:102038007274777B8083898B8985807A7876767BC2
:10204800808682817D7E817F7D7B7E8183817E7C8F
:1020580081878A8880787575787C7F83868988846B
:10206800817B7778797D7F83837D7D7D81827E7C8E
:102078007B818383817D7E838887817A7676767A71
:102088007E8287888884827F7C79777B7D8184853E
:10209800837D7C7E80827E7E7F858782817E7F8332
:1020A8008785807C7777787A7D82888A8A867F7D23
:1020B800797A777A807F8584857E7B7E8082807C32
:1020C8007E7F848680807D808184827E7A7678791E
:1020D8007D81868A8888827E7D7979757C7F8184F6
:1020E80084847C7B7D7F817F7B7F8086847F7E7CF0
:1020F800818284807C777677797D818689878482DE
:102108007C7B7979777B81828283817D7A7C7E81F1
:10211800817F7E808485837E7B7D818383807B78BD
:10212800787A7B808386868584817D7C7979797DC0
:10213800848283807F7C7B7D7F8383807F8184848E
:10214800817E7B7D828585817C7877797B80858798
:102158008A8885827D7B78787B7D82838181807F78
:102168007D7C7E818583807F7F8484827D797D816B
:1021780085847F7B77787A7D818487898884807A53
:102188007878797B7F828482817F7E7B7B7E818564
:1021980083827E7F8282807D7A7C808485807C7742
:1021A80077787C8084878886847E7B78787A7C7F41
:1021B8008083817F7E7C7D7D7D828483807D7D7F21
:1021C80082837E7A7B7E8484837D7777777B7F8129
:1021D80085878988827F7878787C7E8081848380EF
:1021E8007E7E7F7E80808383827E7E7F8183817DE9
:1021F8007A7D818584817B76787A7E8284878889D6
:10220800857F7A76777A7E80828184827D7E7D80E2
:102218008081828385837E7E7F81837F7D7B7F85AE
:1022280087857F7874767B808586888988847D77A2
:1022380076777B8282848081827C7D7D7D808082AE
:102248008383827D7B7C7F83827D7B7C8185837F8A
:102258007973757A7F8383868887847F7A77777A9C
:102268007F81827F81827F7F7E7E7F808182828064
:102278007C7D7F8385827D7A7C8285837E79757675
:102288007A7E8386878888847E7976777A7F838248
:10229800807F817E7D7F7F818081838283807D7D39
:1022A8008083847F7C7B7E8485837D7775777E8140
:1022B8008487888886817B79787A7D81828281800B
:1022C800817E7E80818281818181827F7D7E818401
:1022D800847F7C7B7F8384837C77767A7F82848506
:1022E800868684817B79777A7D8081817F81817DF3
:1022F8007F7F80807E818182827E7D7F8184827ED5
:102308007C7C8184837F7976777C818485868685C9
:10231800827E7A77797C7F80807F7E81827E7F7FD4
:102328007F807F808282817E7E7F8183817D7A7CAF
:10233800818484807977787B818384858686837E8F
:102348007A78787B7E8181807E82807E7E7E7F80A7
:102358007F818182807E7E7F8283817D7C7C828575
:10236800837F7977777D828486858485827F7B7871
:10237800797D7F82807F7E82827F7F7F7E7F808063
:1023880082817F7E7E818383817B7B7C8184837F46
:102398007A77787C81838384848584817C79787B4F
:1023A8007E80807F7E8182807F7E7E7F8080828229
:1023B800817F7E808283827E7C7B7F8483807C7821
:1023C800777B80838484858584827D79787A7D8013
:1023D80081807E7F82817F7F7F7F80808180807FF8
:1023E8007D7F8183837F7C7B7C8183817F7A777A01
:1023F8007D81838484858582807C79787B7E7F80DB
:10240800807E81828080807F7F7D7E8081817F7ECB
:102418007F8183827D7B7A7D8384827F78777A7DD2
:10242800828384838384827E7B78797C7F81817EAA
:102438007E81808080807F7E7E8082817F7D7F829A
:102448008585817C7A7B818584817B77797C818491
:102458008484838484817E7B797A7E8181817D7F77
:1024680081808282807F7E7F8181817F7E7F83855C
:10247800847F7B7A7D8285837E79777A7E83848365
:1024880083838484807D79787B7E80827F7E807F51
:102498008182807F7D7E8080817F7B7E8084868034
:1024A8007C797A8084847F7875777C828483828142
:1024B8008484817E7977797D81827F7F7E7F828324
:1024C800827F7D7E8081817D7B7D818585817B7911
:1024D8007C8185847D7774787E85868582828383F6
:1024E800817C78777A7F83817F7D7C808384837FFA
:1024F8007D7F80817F7C7D7F8587847F7B7C8184D5
:10250800847F7875777E85888785828383827F7AC2
:1025180078797E838381807D80848584817D7E7FB8
:1025280081807D7D7F818684807C7B8083858179A5
:1025380074757982868685828283827F7A77787BB2
:102548008182827F7C7F828484817F7E7D7F7E7E84
:102558007F808383817F7D7E8283827C7775767D91
:1025680084878786838281807C7877797C7F817F66
:102578007E7E7F828382817E7D7C7C7D7E8283825B
:10258800807D7D808283807B7674777E8388888750
:102598008582827E7B7978797C818181807F808148
:1025A800838583817E7B7C7E818483807E7E80831D
:1025B80084827C7775777D83878787858583817E0D
:1025C8007A78777B7E818281807F7F838485837E12
:1025D8007C7C7E818482817E7F8284847F7A767609
:1025E8007A7F85878685848484817E7A77797A7EE6
:1025F8008181807F7F818383827D7B7C7F838381D0
:102608007F7C7E8183837F7A7676797F83858483D6
:10261800828182817E7C787A7A7D8080807F7F81CA
:102628008384837E7C7B7C808282807D7E7F8284A3
:10263800817C7875777D8386858381808081807EA3
:102648007A78797C7F81807F7F80828382807E7E9A
:102658007F80818181808081807F7C7A797B7F8285
:1026680084858482828281807D7B7B7B7D7E7F8066
:10267800818282818181818281807F7E7F80828345
:10268800827F7C7A7A7D8083838482828281817E44
:102698007C7C7C7D7E7E7F7F80818182828282803D
:1026A800807F7E80818282807E7C7A7B7C80828330
:1026B80083828180807F7E7E7D7C7C7C7D7E7F8026
:1026C80080808081828281807E7E7F8081807E7B07
:1026D8007A7B7D808383828080808080807F7D7C00
:1026E8007B7C7D7F7F808080818181817F7F7E7EF2
:1026F8008081817F7D7B7B7D7F81838281807F7FDD
:102708008080807E7D7C7C7D7E7F808081818282CE
:10271800818180808080807E7D7C7C7E80828383B6
:1027280082807F7F8080807F7E7D7D7E7F808182AA
:102738008283828281807F8080807F7E7D7D7E8093
:1027480082838382807F7E7F7F7F7F7E7E7D7D7D8B
:102758007E7F80818283828180808080807F7E7D71
:102768007D7E7F81828382817F7E7E7E7F7F7F7E6A
:102778007D7C7D7E808182838281808080807F7F56
:102788007E7D7C7D7E80818281817F7F7E7E7E7E54
:102798007E7E7D7D7C7C7D7F80828282817F7F7E44
:1027A8007F7F7F7E7D7D7D7F80818281807F7E7E31
:1027B8007E7E7F7F7E7E7D7D7E8081828382828118
:1027C800807F7F7E7E7E7F7F808182818181807F06
:1027D8007F7E7E7D7D7D7E7F8081818180807F8000
:1027E80080807F7F7F7F7F808182828181807F7FE1
:1027F8007E7E7F7F7E7E7E7E7E7F808182828181DB
:10280800807F7F80808080808080808080807F7EC5
:102818007E7E7E7E7F7F7F7F7F7F7F7F80808080C0
:102828007F7F7F7F7F7F7F7F7F7F7F7F7F7F7F7FB0
:102838007F7F7E7E7E7E7E7F7F7F7F7F7F808080A2
:1028480080807F7F7F7F7F7F807F7F7F8080808089
:102858007F7F7E7E7E7E7E7E7E7F7E7F7F7F808086
:10286800808080807F7F7F7F7F8080808080808065
:1028780080807F7F7F7E7E7E7E7E7F7F7F7F7F7F63
:102888008080808080807F7F7F7F7F7F7F80808047
:102898007F7F7F7F7F7F7F7E7E7E7E7E7F7F7F8044
:1028A800808080807F7F8080808080808080808022
:1028B8008080808080807F7F7F7F7F7F7F7F7F7F1A
:1028C8007F7F808080808080808080808080807F03
:1028D8007F808080807F7F7F7F7F7F7F7F7F7F7FFC
:1028E8007F7F7F7F7F7F7F7F7F7F80807F7F7F7FEE
:1028F8007F7F7F7F7F7F7F7F7F7F7F7F7F7F7F7FE0
:102908007F7F7F7F7F7F80808080808080808080C5
:1029180080808080807F7F7F7F7F7F7F7F7F7F7FBA
:102928007F7F7F7F7F7F7F7F7F7F7F7F7F7F7F7FAF
:102938007F7F7F7F7F7F7F7F7F7F7F7F7F7F7F7F9F
:102948008080807F7F7F7F80808080808080808083
:10295800808080808080807F7F7F7F7F7F7F7F7F78
:102968007F7F7F7F7F7F7F7F7F7F7F7F7F7F80806D
:102978008080807F80808080807F7F7F7F7F7F7F57
:102988007F7F808080808080808080808080808041
:1029980080808080808080808080807F7F7F7F7F34
:1029A8007F7F8080808080807F7F7F7F7F7F7F7F29
:1029B8007F7F7F7F7F8080807F7F7F7F7F7F7F7F1C
:1029C8007F7F7F7F7F7F7F7F7F7F7F7F808080800B
:1029D8008080807F7F7F80808080807F7F7F7F7FF7
:1029E8007F7F7F7F7F7F7F7F7F7F7F7F7F7F7F7FEF
:1029F8007E7E7F7F7F7F7F7F7F7F7F7F7F7F7F7FE1
:102A08007F7F7F7F7F7F7F7F7F7F7F7F7F7F8080CC
:102A18008080807F7F808080808080808080807FB1
:102A2800808080808080808080808080808080809E
:102A38007F7F7F7F8080807F7F7F7F808080807F97
:102A4800808080807F7F7F7F7F8080808080808083
:102A5800808080808080808080808080808080806E
:102A68008080808080808080807F80807F7F7F7F63
:102A78007F7F7F7F7F7F7F7F7F7F7F7F7F7F7F7F5E
:102A88007F7F7F7F7F7F7E7F7F7F7F7F7F7F7F7F4F
:102A98007F7F7F7F7F7F7F7F7F7F7F7F7F7F7F7F3E
:102AA8007F7F7F7F7F7F7F7F7F7F7F7F7F7F7F7F2E
:102AB8007F7F7F7F7F7F7F7F7F7F7F7F7F7F7F7F1E
:102AC8007F7F7F7F7F7F7F7F7F7F7F7F7F7F7F7F0E
:102AD8007F7F7F7F8080807F7F80808080808080F4
:102AE80080808080808080808080808080808080DE
:102AF80080808080808080808080808080808080CE
:102B080080808080808080808080807F807F7F7FC1
:102B18007F7F7F7F7F7F7F7F7F7F7F7F7F7F7F80BC
:102B28007F80807F7F7F7F7F7F7F7F7F7F7F7F7FAB
:102B38007F7F7F7F7F7F7F7F7F7F7F7F7F7F7F7F9D
:102B48007F7F7F7F7F7F7F7F7F7F7F7F7F7F7F7F8D
:102B58007F7F7F7F7F7F7F7F7F7F7F7F7F7F7F7F7D
:102B68007F7F7F7F7F7F7F7F7F7F7F7F7F7F7F7F6D
:102B78007F7F7F7F7F7F7F7F7F7F7F7F7F7F7F7F5D
:102B88007F7F7F7F7F7F7F7F7F7F7F7F7F7F7F7F4D
:102B98007F8080808080808080808080808080802E
:102BA800808080808080808080808080808080801D
:102BB8007F7F7F80808080807F7F7F7F7F7F7F8017
:102BC8008080807F7F7F7F7F7F80807F807F7F8006
:102BD8007F7F7F7F7F7F7F7F7F7F7F7F7F7F7F7FFD
:102BE8007F7F7F7F7F7F7F7F7F7F7F7F7F7F7F7FED
:102BF8007F7F7F7F7F7F7F7F7F7F7F7F7F7F807FDC
:102C080080807F80808080808080808080808080BD
:102C18008080808080808080808080807F808080AD
:102C2800807F7F7F7F7F7F7F7F807F807F7F7F7FA9
:102C38007F7F80808080808080808080808080808E
:102C4800808080808080808080808080808080807C
:102C580080807F7F7F8080807F7F7F7F807F7F8075
:102C6800807F80807F7F7F7F7F7F7F7F7F7F7F7F69
:102C78007F7F7F7F7F7F7F7E7F7F7F7F7F7E7F7F5E
:102C88007F7F7F7F7F7F7F807F7F7F7F7F7F7F804A
:102C98007F7F7F7F7F7F7F7F7F7F7F7F7F7F7F7F3C
:102CA8007F7F7F7F7F7F7F807F7F807F7F7F7F7F2A
:102CB8007F7F7F7F7F807F80807F7F7F7F807F7F18
:102CC8007F7F7F7F7F807F7F8080807F807F7F8006
:102CD80080808080808080818080808080808080EB
:102CE800808080808080807F7F7F7F7F7F7F807FE4
:102CF8007F7F7F7F807F7F7F7F7F808080808080D5
:102D0800807F808080808080808081807F808080BC
:102D180080808080807F7F7F7F7F80807F7F807FB3
:102D28007F7F807F7F807F7F7F7F7F7F7F7F807FA8
:102D38007E7F7F7E7E807F7F7F7F7F7F7E7F7F7E9F
:102D48007F7F807F7E7E7F7E80808080807F7F7F88
:102D58007F80807F7F7F807F7F80807F80807F8073
:102D68007F7F80807F80807F7F7F7F7F7F7F7F7F67
:102D78007F7F807F7F7F7F7F7F807F7F7F7F7F7F59
:102D88007F7F7F80807F808080807F7F7F80808042
:102D98008180807F7F808080808081808080807F2C
:102DA800808280808080817F7F8180808080808019
:102DB8008080817F80807F7F8080808081807F800D
:102DC8007F807F7F80817F7F807F807F7F807F8003
:102DD800807F807F7F807F7F817F7F807F7F7F7EF6
:102DE8007F7E807F7F81817E7E7F80807E7F8180E5
:102DF8007F807F7F7D7E7F7F818180807E7D8080D8
:102E080081807F7E7D7C7E7E80848080807F7E7CCA
:102E18007C7F7F807F7E7F7E7D7E7F7F8181807DBE
:102E28007F7F7F8182817F7E7C7D80828183848198
:102E38007F7C7B7E7E7F8080807D7D7D7E808080A4
:102E4800817E7E80808082817E7F7D7D7F8185817D
:102E580083837E7D7C7D7D7D8486827D7A7D838172
:102E6800818280837F7F8584827E77797D84888450
:102E7800857E8486737883847B78888F82736D7966
:102E88008A8B817D7D82818087847E7771737E883D
:102E98008D87837E81836F728088847C83897F7429
:102EA8006B758B8E847C7D83837F8281807C73733A
:102EB8007B878E8982827B84796B7B878A827D84FB
:102EC80084786F6C7D908E837B7C827F7D807F820F
:102ED8007C74747E888C83817E7D857370818A89F9
:102EE8007D7E847E776E7289938B807A7C838080E6
:102EF8008182837A7278848B8A80827D84816D78DE
:102F0800868B857C7F837D746F7B8F9385797780B3
:102F1800847E8080838377727B868F86807F7F899B
:102F280077707D888B817D80807C737282908E81A2
:102F3800787A828481807E828176777F8A8D82808A
:102F48007D84817177818988817F7E7C76727A8998
:102F580090877B777D8483807C7D8178747A858D6A
:102F680086807C808375737B868984807E7E787377
:102F780076828F8C8178798385847D7B807E787852
:102F88007F8B8B857C7C847B7476818987837D7B32
:102F98007A75747B8A8F877D767D8386807B7D803A
:102FA8007C787B838C89847B808077757986898718
:102FB800827C79777678828E8C857B797F83867F11
:102FC8007D7F7E7B7A7D878B8A827E827B77777E08
:102FD800878987817C7775777C878E88807A7C81E2
:102FE80083837C7E7F7C7A7A81878A877F808079D9
:102FF8007579828788857F7B7775787F8B8B857ECF
:10300800797E8085807D7E7D7C7A7C8287898580BB
:10301800807D78757B858787827D79767579818BC8
:103028008A837C797D81857F7D7E7C7C7A7C8287A2
:1030380088867E7E7B77777C868786827D7A7676A1
:103048007A838C8B857D797C8087827F7E7B7C7977
:103058007D80868A87817D7C77767B838787837F5F
:103068007A76757982898C867E77797E8485817E69
:103078007B7B797C7E838988877E7C79767980885A
:103088008986807C7878797D858A8C867C7679813A
:103098008788827E7A7A7A7C81848987867F7D7A1E
:1030A80075797F8787837E7A7878787E848A8A851F
:1030B8007B7679818887817C797A7B7D8182878814
:1030C80088807D7A75797F8887847E7A797A7A7D17
:1030D80082888A867D75777F8888857E7979797CEC
:1030E8007F82848889867E7975747B8389857F7BD6
:1030F800797B7B7D7E838786827A7678808A8B86C9
:103108007C7675787C8083868989867F7976757BDD
:10311800838986807B7A7D7E7E7E838787837A75A6
:1031280079828B8B847C7675777C80848588888689
:103138007F7676747C8388867E7B797D80807F7DB0
:103148008386847F78787C878C89807874777C8282
:10315800848484868785817A79777D828685807D57
:103168007D8083827E7D7E8386857D7A7A81898A49
:10317800857B7675797F838181838789877E77715F
:10318800777D838785827A7D7E82807F7D7E848538
:10319800837E797A7F868C8882787373797E83853B
:1031A80084848586837D7975767E818583817E7C1E
:1031B8007F80827F7E7D7F8483827D7A7A7E868708
:1031C800857E7876777B7E818284868787827D7606
:1031D80075778083848280807E8180807F7E7F7FF8
:1031E8008182807E7B7C80868986827A7774767DF0
:1031F800828686878784837C7975777D81888382B8
:103208007D7F807F8180817F808080818080807EBB
:103218007F7F838686847D7873767A8286898A879B
:1032280086837F7A757678808487857E7E7D8283A3
:1032380083827F7F7F80807E7F7E81808081808384
:1032480082827E797574787F868A898783827F7D7A
:103258007A77797B81838682817D7E8082837F7E77
:103268007D7F80817F7E7E7E808281828081828157
:103278007F7A7774777E85898985817D7D7C7D7A63
:103288007A7A7C7F828281807E807F8281817E7C47
:103298007C7D7E7F807F80818484827E7B7A7C7F38
:1032A8008282807C7A7C7F84858683808080817F0F
:1032B8007E7B7A7B7F828482817F8080818381800C
:1032C8007B7C7D7F8181818081838485807E7A7CFF
:1032D800808284807E78797D82868785827F7F7FE1
:1032E800807E7D7D7C7F81828280808082848282D4
:1032F8007F7D7B7C7F81838381807F818182817DCB
:103308007C7A7E8083827F7B78797E8285858381C3
:1033180080807F807D7B797A7D7F81827F807E80BF
:103328008182817D7C797C7D808383837F7E7F7FA2
:103338008280807C7A7B7D828484817C79777B7FA4
:10334800838584848281807F7E7C7B7A7B7E7F817B
:103358008181808180818281807D7D7C7E7F808269
:103368008281817F807F807F7E7E7B7D7F82858555
:10337800837E7B79797E828687868481807F7E7E44
:103388007D7C7C7D7F808282828181818282818036
:103398007C7C7C7E8081828182828181807F7D7C31
:1033A8007C7C7E80848585837E7A78797D8285861B
:1033B800858381807E7E7D7D7C7D7D7E7F7F808113
:1033C80082828281817E7E7B7B7C7D8080818182FE
:1033D80082817F7E7C7C7B7C7D7E7F818383827FF4
:1033E8007B79797B7E8284848482807F7F7F7E7DE7
:1033F8007C7C7C7D7E7F828283838282807F7E7CD0
:103408007D7D7F8181838181818181807F7C7C7DBD
:103418007E80808181818280817E7C7B7A7D7F82B3
:1034280084848482817F7E7F7E7F7D7D7C7B7C7DA2
:1034380080828384848482807E7C7D7D7F8080817D
:10344800818282828282817F7F7E7E7F7F80808070
:103458008181828281807E7E7C7D7E808182838262
:1034680081807E7E7E7E7E7E7E7D7D7E7F80828365
:10347800838282807F7E7E7D7D7F7E808081818148
:1034880081807F7F7E7F7E7F7F7F7F7F808081813D
:1034980081807F7E7D7D7E7F8081818181807F7F2D
:1034A8007F7E7E7E7E7D7D7E7E8081828282817F20
:1034B8007E7E7E7E7E7F7F808080818181807F7F0F
:1034C8007E7E7E7F80818181808080808180807FF8
:1034D8007F7E7E7F808181818181807F7E7E7E7FED
:1034E8007F7F7E7E7F7F7F8080818180807F7E7EE0
:1034F8007F7F8080808080807F7F7F7F7F7F7F80CD
:1035080080808080808080808080808080808080B3
:103518008080808181808080808080807F7F7F7FA5
:103528007F7F7F7F7F7F7F7F7F7F7F7F7F7F7F7FA3
:103538008080807F7F7F7F7F7F7F7F7F7F7F7F7F90
:103548007F7F8080807F7F7F7F7F7F7F808080807C
:1035580080808080807F7F7F7F7F80808080808068
:103568008080808080807F7F8080807F7F7F808058
:103578007F7F7F7F7F7F7F7F7F7F7F7F7F7F7F7F53
:103588007F7F80808080807F7F808080807F7F7F3A
:103598007F807F7F7F7F80808080807F7F7F7F7F2D
:1035A8007F7F7F7F80808080808080807F7F7F7F1B
:1035B8008080808080808080808080808080808003
:1035C80080808080808080808080808080808080F3
:1035D800808080808080808080807F7F80808080E5
:1035E80080808080808080807F7F7F7F7F807F7FDA
:1035F80080808080807F7F7F7F7F7F80807F807FCB
:103608007F7F7F808080807F7F7F7F7F7F808080BB
:103618007F808080807F7F7F8080807F7F7F7F80AA
:10362800808080807F7F7F7F808080808080807F97
:103638007F7F7F7F7F7F7F7F7F7F7F7F7F7F7F7F92
:103648007F7F7F7F7F7F7F8080808080807F80807A
:103658008080808080808080808080808080808062
:1036680080808080807F7F808080807F7F7F7F7F59
:103678007F7F8080808080807F7F7F7F7F80808049
:10368800807F7F7F7F7F7F7F7F7F7F7F7F7F7F7F41
:103698008080808080808080808080808080808022
:1036A8008080808080808080808080808080808012
:1036B8008080808080808080807F7F7F807F7F7F08
:1036C8007F7F7F7F7F80807F7F7F7F7F7F7F7F7F00
:1036D8007F7F7F7F7F7F80808080807F7F7F7F7FED
:1036E8007F7F7F7F7F7F7F7F7F7F7F7F80808080DE
:1036F8007F7F80808080807F807F7F7F7F80807FCA
:103708007F7F7F7F7F7F7F7F7F7F7F7F7F7F7F7FC1
:103718007F7F7F7F7F7F7F7F7F7F7F7F7F7F7F7FB1
:103728007F7F7F7F808080807F7F80808080808097
:103738008080808080808080808080808080808081
:103748008080808080808080808080808080808071
:103758008080808080808080808080808080808061
:103768008080808080808080808080818080808050
:1037780080808080808080808080807F7F7F7F7F46
:103788007F7F7F7F7F7F7F7F7F7F7F7F7F7F7F7F41
:103798007F7F7F7F7F7F7F7F7F7F7F7F7F7F7F7F31
:1037A8007F7F7F7F7F7F7F7F7F7F7F7F7F7F7F7F21
:1037B8007F7F7F7F7F7F7F7F7F7F7F7F7F7F7F7F11
:1037C8007F7F7F7F7F7F7F7F7F7F7F7F7F7F7F7F01
:1037D8007F7F7F7F7F7F7F7F7F7F7F7F7F7F7F7FF1
:1037E8007F7F8080808080808080808080808080D3
:1037F80080808080808081818181818181818181B7
:1038080080808080808080808080808080808080B0
:10381800808080808080808080808080807F7F7FA3
:103828007F8080808080807F7F7F80808080808094
:103838008080808080808080808080808080808080
:1038480080808080808080807F7F7F7F7F7F7F7F78
:103858007F7F7F7F7F7F7E7F7F7F7F7F7F7E7E7E74
:103868007F7F7F7F7F7E7E7E7F7F7F7F7F7F7F7F63
:103878007F7F7F80807F7F7F7F7F7F808080808049
:1038880080808080808080808081808080807F8030
:10389800818080808080808080808080808080801F
:1038A8008080808080808080808080808080808010
:1038B8008180808180808081808080818181807FFB
:1038C80080808081818081808080808180818080EB
:1038D80080808080808080808080808080808080E0
:1038E8007F7F7F7F7F7F7F7F7F7F7F7F7F7F7E7FE1
:1038F8007F7F7F7F7F7E7E7F7F7F7F7F7F807F7FD1
:103908007F7F7F7F7F7F7F7F7F7F7F7F7F7F7F7FBF
:10391800808080807F7F7F7F7F7F7F7F7F7F7F7FAB
:103928007F7F7F7F7F7F7F7F7F7F7F7F807F7F7F9E
:103938007F7F7F7F807F7F7F7F7F7F807F7F80808B
:1039480080807F80807F8080808080808080808071
:1039580080808080808080808080807F8080808060
:1039680080808080808180807F808080808080804F
:10397800807F7F808080808080807F808080808042
:1039880080808080807F8080808080808080808030
:10399800807F8080808080808080807F80807F7F23
:1039A8007F7F7F7F7F807F7F7F7F7F7F7F7E7F7F1F
:1039B8007F7F7F7F7F7F7F7F7F7F7F7F7F7F7F7F0F
:1039C8007F7F7F80807F7F808080808080808080F4
:1039D8007F8080808080807F7F807F7F80808080E4
:1039E80080808080808080808080808080807F7FD1
:1039F8008080807F7F7F7F7F7F7F7F807F7F7F7FCB
:103A08007F7F7F80807F80807F7F7F8080808080B5
:103A1800808080808080808080808080808080809E
:103A2800808080808080808080808080808080808E
:103A38008080808080807F7F7F7F7F7F807F7F7F87
:103A48007F7F7F8080808080808080808080808071
:103A5800808080808080808080808080808080805E
:103A68008080808080808080808080807F807F7F51
:103A78007F7F7F7F7F7F7F7F7F7F7F7F7F7F7F7F4E
:103A88007F7F7F7F807F7F7F7F7F7F7F7F807F7F3C
:103A9800807F8080808080807F7F80807F80808022
:103AA800808080808080808080808080808080800E
:103AB8007F7F7F7F808080807F7F7F7F7F7F7F7F0A
:103AC8007F7F7F7F7F7F7F7F7F7F7F7F7F7F7F7FFE
:103AD8007F7F7F7F7F7F7F7F7F7F7F8080808080E9
:103AE80080808080808080808080808080808080CE
:103AF80080808080808080808080808080808080BE
:103B08008080808080808080808080808080807FAE
:103B180080807F80807F807F80807F7F80808080A2
:103B28007F807F808080808080807F808080808090
:103B3800808080808080807F7F7F7F7F7F7F7F7F86
:103B48007F7F7F7F7F7F7F7F7F7F7F7F7F7F7F7F7D
:103B58007F7F7F7F7F7F7F7F7F807F7F7F7F7F7F6C
:103B68007F7F807F807F7F7F7F7F80807F7F7F7F59
:103B78007F7F7F80807F7F7F7F7F7F7F7F7F7F7F4B
:103B88007F7F7F7F7F7F7F7F7F7F7F7F7F7F7F7F3D
:103B98007F7F7F7F7F0000007F7F7F7F807F8080A7
:103BA8007F7F7F7F7F8080807F80807F7F7F7F7F18
:103BB8008080807F7F7F7F8080807F7F8080808003
:103BC800808080807F7F7F7F80807F7F7F807F7FF6
:103BD8007F7F80808080807F7F80808080808080E1
:103BE80080808080808080808080808080808080CD
:103BF80080808080808080808080808080808080BD
:103C080080808080808080808080808080808080AC
:103C1800808080808080808080808080808080809C
:103C28008080808080808080808080808080807F8D
:103C38007F808080807F7F7F7F7F7F7F7F80807F86
:103C48007F7F7F7F7F7F7F7F7F807F7F7F7F7F7F7B
:103C58007F7F7F7F7F7F7F7F807F807F7F7F7F7F6A
:103C68007F7F7F7F7F7F8080808080808080808052
:103C7800808080808080808080808080808080803C
:103C8800807F807F80808080807F7F808080808030
:103C9800807F7F7F7F7F7F7F80807F7F7F7F7F8028
:103CA8008080808080807F8080808080808080800D
:103CB80080808080818180808080808081808080F9
:103CC80080808080808080808080808080808080EC
:103CD800808080808080808080807F7F7F80807FE0
:103CE8007F7F7F7F7F7F7F7F7F7F80807F7F7F7FDA
:103CF8007F7F7F7F7F8080807F808080807F7F7FC5
:103D08007F7F8080808080807F80808080808080AE
:103D180080808080808080808080808080807F7F9D
:103D28007F7F7F7F7F7F7F808080807F7F7F7F7F97
:103D38007F807F7F807F7F7F808080808080808081
:103D4800808080808080808080808080808080806B
:103D580080807F7F80807F7F7F7F807F7F7F7F7F66
:103D68007F7F7F7F7F7F7F7F7F7F7F807F7F808058
:103D7800808080808080808080808080808080803B
:103D8800808080808080808080808080808080802B
:103D9800808080808080808080808080808080801B
:103DA800807F8080807F7F807F7F7F7F7F7F807F15
:103DB8007F7F7F8080807F7F7F8080808080808001
:103DC80080808080808080808080808080808080EB
:103DD8008180808080807F808080808080807F7FDD
:103DE8007F7F807F807F7F7F7F7F7F7F7F7F7F7FD9
:103DF8007F7F7E7F7F7F7E7F7F7E7F7F7F7F7F7ECF
:103E08007F7F7F7F7F7F7F808080807F7F7F8080B4
:103E18008080807F7F7F808080807F808080807F9F
:103E28007F7F808080807F7F7F7F7F7F7F7F808094
:103E38007F7F7E7F818080807F808080808080807F
:103E480080807F808080807F808181808080808169
:103E580081818180807F8081828181808080808152
:103E6800818181807F7F80807F80808180807F7F4B
:103E7800807F7F7F8080807E7F7E7F7F7F7F7F8047
:103E88007F7E7F807F807F7F7E7F807F8080807F36
:103E9800817F8080818080807F8080807E7F80801D
:103EA800807F7F7F7F7F7F807F807F7F7F7F7F7F17
:103EB800807F7F7E7F7F7F80807F7F7F7E7E7F7E0B
:103EC8007F7F7F7F7F7E7F7F807F7E8080807F7FF8
:103ED8007F807F807E807F8081807F8080808080DF
:103EE800817F807F7F8180807F80818081807F80CB
:103EF8007F8080807F7F7F8080817F807F808180BE
:103F0800818080807F7F8080818080807F7F8081AA
:103F18008181818080807F808182817F7E7D7E809B
:103F2800818382818080808081807E7D7F81817F86
:103F38007C7B808484807C7B7E828584817D79788B
:103F48007A7E838483827F7F7D7C7E7D7D7B7D817D
:103F580083807B7779818585807E7D818486837F58
:103F68007B787B7D82858886827F7C7C7D7D7C7B5F
:103F78008084847F77767A8385847F7F8084868334
:103F8800807C79787A7E84858885827E7B7D7C7D3D
:103F98007B7B8084857F77767B8286838080818522
:103FA8008584827E7A787B7F86888985827F7C80FB
:103FB8007F7D7B7C8488857F75777E848581808101
:103FC800868884807D7A787A7E81888A87837D7CDA
:103FD8007D807D787A838A877C75767E85817E7CF4
:103FE800838A8A847E7A7876787C828A8889817BBB
:103FF8007D7F7F77767C868A837A767B7F807C7AE2
:104008007F888E8B837C7774757A7E868C88897E90
:104018007B7D7E7A75787E89898077777B807E7ACA
:104028007A828C8F88817A76747779818D898F816D
:104038007C807F7D73757D878C837A797D827D779F
:1040480078808C9089837C7A75757781898C8E824B
:104058008082827D73737D868A807C7C818279767A
:1040680079828D8F87817C7B75747882878F8B812D
:104078008483847A71777C86877E7F81867F757555
:1040880077868E8C85807D7876747B7F888F848216
:104098008485807475767E867F7F8085827B76773F
:1040A8007E898B87827F7C7776797E838F878284EF
:1040B80086837976777A81817E8084857E77787C1D
:1040C800878A87837F7E7878787F808C8A838485C7
:1040D800857A76797B7F817C7F83857E77767B8402
:1040E8008A8983817E7977767E7F898A82868788A6
:1040F8007D77797A7F7E7D7F84888179787A8489D3
:104108008884817F7A78777D7D8988838587897C93
:104118007B78797D7C7C7D8486807A777B838786B3
:1041280080837E7B76787A7D8A84838589877B7B8A
:10413800787B7C7C7B7E86847E7A797F858A868282
:10414800827D7C777C79858A8487868B807E7A7964
:104158007A7C7E7B8286817C797A80868A83827F5C
:104168007D7978797C8785858588877E7C797A7A58
:104178007B7C7D84847F7B797E82898684807F7B3B
:10418800797978858385868B8882827D7B7A7A7A2D
:104198007D8483807D7A7D8287858681807B7B771D
:1041A80079818083848A8583837E7D7A78777C8011
:1041B8007F7F7B7C7C8386848482817C7C777B7F09
:1041C80080828688848584807E7A7A797E7E7D7DE9
:1041D8007C7D7E84848583827D7C7A787E7E8083E4
:1041E8008987838482807D7C797A7E7D7C7A7B7DD9
:1041F8008285848483827F7C787B7D7E7F858685AB
:10420800868683807F7C7C7E7D7C7B7B7C808586AC
:1042180086858481807C7D7E7E7F84848486878376
:1042280082817E7E7F7E7B7979797C818384858497
:1042380082817C7C7E7D7E82828083858381827F71
:104248007F7F7F7B7978797B808384858483817C79
:104258007B7D7B7E83848284858282827F7F807F50
:104268007C7A79777A7D8081838483827E7B7E7A6B
:104278007C80818081837F8181808180807D7C7A40
:1042880078787B7D8082848383807E807D7E818236
:10429800818284818282828283827F7D7B79787A1F
:1042A8007D7F82848384807F817E7E8283818283F6
:1042B800818283828283827F7E7B79797B7C7F8106
:1042C800838383827F827E7F8383828283818383C9
:1042D80083838282807E7C7A7A7B7C7E80828383E1
:1042E800817F827F7F8282828283808082818282B4
:1042F800827F7D7B7978797B7D7F818181807E80DB
:104308007E7E828282828281818180828282807E98
:104318007C7978797B7D80828282807E807E7E82B5
:104328008282838380808180828182807E7C79788A
:10433800787A7C7E818282817E807D7D8181828285
:10434800838180807F818181817E7D7A79797A7C81
:104358007E808282817F817F7E8182838484838242
:10436800838182828282807F7C7B7C7C7E7F81824B
:1043780082828081817F828282828283828282811C
:104388008281817F7D7B7A7A7C7D7F80828181803A
:104398007E807F8083828383828181818182828102
:1043A800807E7C7B7A7A7D7E80828282827F7F801B
:1043B8007E808382838382818080808181807F7CEC
:1043C8007B79797A7B7E80818282807F7F7F7D8006
:1043D8008281838281818080808080807E7C7B79DD
:1043E800797B7C7E80828282807F7F7E7E818281D3
:1043F800838281828180818180807E7D7B7A7A7BC5
:104408007D7F8182838282807F807F808281828398
:10441800828181808181807F7E7D7C7B7A7B7D7FAC
:104428008183838384828181818082838283838262
:104438008281818180807F7D7C7B7B7B7C7E80828A
:10444800838383838281807F80818181828281814D
:10445800818080807E7D7C7B7B7A7B7D7E80828371
:10446800838382818080807F808081828181818135
:1044780081807F7E7D7C7B7B7C7C7E7F808182824D
:1044880082828181807F8080808080807F7F7F7F23
:104498007E7E7D7D7C7C7C7C7D7D7E7E7F80808138
:1044A80081818181818181818080807F7F7F7F7E02
:1044B8007F7F7F7F7F807F7F7F7F7F7F7F808181FE
:1044C80081828281818181818080807F7F7F7F7FDF
:1044D8007F8080808080807F7E7F7F7E7F7F7F80DF
:1044E80080808181818181818181818181808080B9
:1044F80080818181808080808080808080808080B1
:104508008081818181818181818181818181808096
:1045180080807F7F7F7F7F7E7F7F7F7F7F7F7F7FA2
:104528007F7F7F7F7F7F7F7F7F7F7F7F7F7F7F7F93
:104538007F7F7F7F7F7F7F7F7F7F7F7F7F7F7F8082
:104548007F7F7F7F80808080808080808080818066
:1045580080807F7F7F7E7F7F80807F7F7F7F7F7F60
:104568007F7F7F7F7F7F7F7F7F7F7F80808080804E
:10457800807F8080808080808080807F8080808035
:104588007F8080817F8081818080808081827F7D23
:104598007F818381807E7E8182807F7E7F81818111
:1045A8007E7D7E7F808282807E7E808282807E7E0B
:1045B8007F8282807E7E808182817F7E7F818280F1
:1045C8007F7E7F818181807F808181807F7E7E7FE9
:1045D8008081807F7F808080807F7F7F8080807FD8
:1045E8007F7F7F8080807F7F7F7F7F7F7E7F7F7FD1
:1045F8007F7F7F80807F7F80807F7F7F7F808080BC
:1046080080808080808080808080808080808180A1
:10461800808080808080807F7F7F80818181808092
:104628007F7F7F7F7F7F7F7F7F808080808080808B
:104638007F7F7E7D7D7D7D7D7E8081818181818280
:1046480082807F7F7F7F7F807F7F7F807F80808069
:104658007F7F80808080808081818181807F7E7F54
:104668007E7E7E7F80808080808181817F7E7E7E4D
:104678007E7F7F7E7E7E7E7F7F7F7F7F7F7F808144
:10468800808080818181807F7F7F7F7E7E7E808227
:1046980082828282828282807F7F7F808080807F08
:1046A8007F808080807F7F80808180807F7F808006
:1046B800807F7E7D7D7E7E7D7E7F80808080818103
:1046C80082817F7E7E7F8080807F7F7F7F7F7F80EB
:1046D8008080808181818180808081807F7E7E7DD5
:1046E8007D7E7F7E7E81838281818181817F7D7BCA
:1046F8007C7E7F7F7F7F7F7E7E7D7D7E7F7E7F7FCE
:104708008080808080808080807E7C7C7D7D7E80B3
:104718008180808385827F7F8181807F7E7D7E818D
:104728008282818282817F7F7F8080808081828275
:10473800828181818180807F7E7D7C7E7F7F808277
:104748008281838684807F8081807E7D7C7D80825B
:1047580081818182817E7D7F807F7E7F808283824E
:104768008282828382807D7C7D7D7C7D7E80828347
:1047780082808285837D7B7E807E7C7C7D7F81813B
:10478800818182817E7B7B7E7E7C7B7D8182818034
:10479800808182817F7D7D7D7B7A7B7D7F80808229
:1047A80085828081837F7A7B7F7E7C7D7F8080810C
:1047B80082828281807D7B7D7E7D7C7D80828282FB
:1047C80082828281807F7E7D7D7C7C7D7F808182EC
:1047D800828586827F82837E797D81807D7F8283C8
:1047E8008181838483817F7E7D7D7E7E7E808283BE
:1047F80084838383838281807F7E7D7C7C7E8080AE
:104808008182838585817F82837E7A7D81817E7E98
:10481800818280808283817F7E7D7C7C7C7D7E809E
:10482800818183838282828180807E7D7D7C7C7D84
:104838007F7F7F8182808183827F80817E7C7E7F73
:104848007D7D80807E7E7F7E7E80807F7F807E7D76
:104858007D7E7D7D7F807F8182818182827F7E7E59
:104868007C7A7B7C7C7D7F80808384828284848147
:1048780081817F7D7F807E7E7F7F7E7F8281808138
:10488800817F7F7F7E7E7F80808182838282838317
:10489800807F7F7D7B7C7C7B7C7F8080828484831F
:1048A80083838281817F7E7F7F7F7F7F7F7F808000
:1048B8008082828181817F7F807F7F8081818183E7
:1048C80083828283827F7F7F7D7C7D7D7C7D8081EA
:1048D8008082838281828280807F7D7C7E7E7D7DD6
:1048E8007E7D7D7E7F7F808080807F7E7E7E7E7ED7
:1048F8007F80808182808183817F80807C7B7D7CBA
:104908007B7E7F7F8182828384828282817F7F7F98
:104918007D7E7F7E7D7E7E7D7E80808080807F7DA7
:104928007E7E7D7D7E7F7F80818180828280808186
:104938007E7C7D7D7B7C7F7F7F8283818284828178
:104948008282807E7F7F7D7E807F7E80807F818265
:10495800818182817F807F7E7E7F7F80818182824C
:1049680082838281807F7D7D7D7B7C7F7E7F81824B
:1049780081828383828183827F7F807D7D7F7E7D2C
:104988007F7F7E7F8181818181807F7F7F7F7F7F25
:1049980080808081818282828180807F7D7C7D7C15
:1049A8007C7E7E7E808181818282818181807E7E03
:1049B8007F7C7D7F7E7D7F7F7D7F81808081807F02
:1049C8007F7F7F7E7F807F7F8181808183818081DF
:1049D8007F7D7D7C7B7B7C7D7E7F818181828281E6
:1049E80081817F7F7F7E7D7E7D7D7E7E7D7E7F7FD8
:1049F8007F80818080807F7F7F7F7F8080808281B1
:104A080082838181838080807E7C7F7D7C80807FA3
:104A180082838283848283838081827E7F817E7E7B
:104A2800817E7E80807F81818080817F7E7F7F7D87
:104A38007F807F8082808183828081817F7F7E7D6D
:104A48007D7D7D7F7F80808282828382828180805B
:104A5800807E7F7F7E7F7F7E7F7F7F7F808080805C
:104A680080807F7F7F7E7E7F7F7F80818081818045
:104A780080807E7D7D7C7C7D7C7D7E7F7F8081804B
:104A8800828180817F7F807E7E7F7E7E807E7E7F2A
:104A98007E7F807F8081818080807F7F807F7F8014
:104AA8008080818181828080807F7D7E7E7C7E7E09
:104AB8007E7F80808181818181818080807F7E7FEF
:104AC8007F7E7F7F7F7F807F7F80808081808080E6
:104AD800807F7F817F8082818183818182818080C4
:104AE8007F7F7E7F7F7F80808081818281818281BC
:104AF80081817F807F7E7F7F7E7F7F7E7E7F7F7FBD
:104B080080817F80807F80807F80807F808080819F
:104B1800818081817F7F7F7D7E7D7E7E7F7F7F809C
:104B28008081818181818080807F7F7E7E7E7F7D84
:104B38007E7F7E7E7F7F7F807F7F807F7E7F7F7E80
:104B48007F7F7F80808081818080807F7F7E7D7D68
:104B58007E7E7E7F7F80818182818281818180804B
:104B68007F7F7E7F7F7F7F7F7F7F7F808081818146
:104B780080807F7F7F7F7F807F808180818280812E
:104B8800807F7F7E7E7E7E7E7E7F7F808181828227
:104B980082828181808080807F7F7F7F7F7F7F800E
:104BA8008080818181818080807F7F807F80807FFD
:104BB80081818082818081807E7F7E7D7E7E7E7FF6
:104BC800808080828181828180817F7F7F7F7E7FDC
:104BD8007F7E7F7F7E7F7F7F8080808080807F7FD9
:104BE8007F7E7F7F7F80808181818181807F807EC1
:104BF8007E7E7E7E7E7F7F7F8080808280808180B7
:104C08007F7F7F7E7F7E7E7F7F7E7F7F7F807F7FAF
:104C180080808080807F7F7F7F7F7F7F8080808192
:104C2800818080807F807F7E7F7F7E7F7F7F808086
:104C3800818181818081817F817F7F7F7E7E7F7E70
:104C48007E7F7F7F80807F80808080807F807F7F65
:104C58007F7F7F80808081818181818181807F7F4A
:104C68007F7F7F807F808181818282818282808133
:104C7800818080808080807F80808080808081802B
:104C880080818080807F7F7F7F7F8080808180801F
:104C9800808080807F7E7E7E7D7E7E7E807F80811C
:104CA80080818080817F80807F7F7F7E7F7F7E7F05
:104CB8007F7F80807F808080818080807F7F7F7FF2
:104CC8007F7F7F80808080808080807F7E7E7D7EE9
:104CD8007D7E7E7E7F7F7F81808080807F807F7FDA
:104CE8007F7F7E7F7F7F7F7F7F7F808080808080C7
:104CF800807F807F7F80807F8080808181818180AC
:104D08007F7F7F7E7E7F7F7F8080808181818181A0
:104D1800818181818080807F7F807F7F80807F808C
:104D2800807F808080808180808180818080808079
:104D380080818181818181818180807F7F7F7F7F68
:104D4800807F8080808080818181818080817F7F59
:104D5800807E7F7F7E7E7F7E7E7F7F7E7F7F7F7F60
:104D68007F7E7F7F7E7F7F7E7F7F7E7F807F80804C
:104D78007F80807E7F7F7E7F807F7F807F80818035
:104D8800808080808080807F807F7F807F807F7F21
:104D98007F7F7E7F7F7F7F7F7F7F7F7F7F7F7F7F1C
:104DA8007F7F7F807F7F80807F80807F80807F8003
:104DB8007F7F7F807F80807F8081808081818181EB
:104DC80081808081808080808080808080808180D8
:104DD8008081808080808080807F80807F818080CB
:104DE80080808080807F80807F7F7F7E7F7F7E7FC6
:104DF8007F7F807F7F807F80807F807F80808080B2
:104E08007F808080807F807F80807F80807F80809F
:104E18007F81807F817F7F807F7F807F7F807F7F92
:104E2800807F7F7F7F7F7F7F7E807F7F7F7F7F7F89
:104E38007F7F7F7F7F807F7F807F7F807F7F807F76
:104E48007F807F7F7F7F7F80808080808080808060
:104E58008080808080808080808081808080808049
:104E680080807F80807F807F7F7F7F7F7F7F7F8044
:104E78007F7F807F7F80807F7F807F80807F808032
:104E88007F8080808080808080808080808080801B
:104E980080808080807F808080808080808080800B
:104EA8008080808080807F8080807F80807F8080FD
:104EB8007F80807E7F7F7E7F7F7F7F7F7E7F807FFA
:104EC80080807F80808080808080808080808080DB
:104ED80080808080808080808080807F80807F80CC
:104EE800807F80807F7F807F7F7F7F7F7F807F7FC5
:104EF800807F7F7F7F7F807F807F80807F7F7F7FB5
:104F08007F7F7F7F7F7F7F7F7F807F7F7F807F7FA7
:104F18007F7F7F7F807F8080807F8080807F808090
:104F28007F807F807F7F7F7F7F7F7F7F7F7F7F7F87
:104F38007F7F7F7F7F7F7F7F7F7F7F7F7F7F7F7F79
:104F48007F7F7F7F7F7F7F7F7F7F80808080808063
:104F580080808080808080807F8080808080808149
:104F68008080808080808081808080808080808038
:104F78008080808080807F8080808080808080802A
:104F8800808080807F7F7F7F7F7F7F808080808020
:104F98008080808080808080808080808080808009
:104FA8008080808080808080808080807F7F7F80FC
:104FB8007F7F7F7F7F7F7F7F7F7F7F7F7F7F7F7FF9
:104FC8007F7F7F7F7F7F7F7F7F7F7F7F7F7F7F7FE9
:104FD8007F7F7F7F7F7F7F7F7F7F7F7F7F7F7F7FD9
:104FE8007F7F7F7F807F808080807F7F8080807FC1
:104FF8007F7F7F7F7F7F7F80808080808080807FB1
:105008007F7F00007F7F7F7F7F7F7F7F7F7F7F7FA6
:105018007F7F7F7F807F7F807F7F80808080808090
:105028008080818080808080808180808080808076
:105038008080808080808080808080808080808068
:105048008080808080808080808080808080808058
:105058008080808080808080808080808080808048
:105068008080808080808080808080808080808038
:105078008080808080807F8080807F7F80807F802C
:10508800807F7F7F7F7F7F7F7F7F7F7F7F7F7F7F27
:105098007F7F7F7F7F7F7F7F7F7F7F7F7F7F7F7F18
:1050A8007F7F7F7F7F7F7F7F7F7F7F7F7F7F7F7F08
:1050B8007F7F7F7F7F7F7F7F7F7F7F7F7F7F7F7FF8
:1050C8007F7F7F7F7F7F7F7F7F7F7F7F80807F7FE6
:1050D8007F7F7F7F7F7F807F7F7F808080808080D1
:1050E80080808080808080808080808080818080B7
:1050F80080808080808080808080808080808080A8
:105108008080808080808080808080808080808097
:105118008080808080808080808080808080808087
:105128008080808080808080808080808080807F78
:105138007F7F7F7F7F8080807F7F7F7F7F7F7F7F74
:105148007F7F7F7F7F7F7F7F7F7F7F7F7F7F7F7F67
:105158007F7E7F7F7F7F7F7F7F7F7F7F7F7F7F7F58
:105168007F7F7F7F7F7F8080807F7F7E7E7E7F7F47
:105178008080808080808080808080807F7F7E7E2D
:105188007F7E7F7F808081818080808080807F7F1C
:105198007F7F7F7F7F7F7F7F7F7F7F7F7F7E7E7E1A
:1051A8007F7F8080808080808080808080807F7FFB
:1051B8007E7E7E7F808181828282818181808080E3
:1051C80081808080807F7F7F80808080807F7E7EDE
:1051D8007E7F8081818181818080807F7F7F7F7ECB
:1051E8007E7E7E7E7E7F8081818180808080807FC0
:1051F8007F7F7F7F7F7F7F7F7F808080807F7E7DB6
:105208007E7F80818282828181807F7F7F7F7F7F96
:105218007E7E7E7E7F7F8081828181807F7E7E7E92
:105228007E7E7E7F7F807F7F7E7F7F7F80807F7E88
:105238007C7C7D7E7F818283828281807F7E7E7E70
:105248007E7E7E7E7E7E7F808182838281807F7E5D
:105258007E7E7E7E7F7F8080808080808080807F51
:105268007E7D7C7C7C7E80818384848382807F7D3C
:105278007D7D7D7D7E7E7F80808283848483828124
:105288007F7F7E7E7E7E7F81818282818181818116
:10529800807F7D7C7B7C7D80828485858482807E06
:1052A8007D7C7C7C7D7D7D7D7F8082838484828102
:1052B8007F7E7D7D7C7D7D7E8081818181818180F5
:1052C80081807F7E7C7B7B7C7F82848686868481CE
:1052D8007F7D7C7C7C7D7E7E7E80808183848584CE
:1052E80082807E7D7C7B7C7D7F8181828180807FC6
:1052F8007F807E7E7C7A7A7A7D81848787878480A6
:105308007D7B7A7A7B7D7F7F80817F8283848482A4
:10531800817F7C7D7C7D7E7F81838383817F7F7F8E
:1053280080807E7C7978797C82868A8C89847E7874
:105338007776797C818282847F8080818283808075
:105348007E7D7D7C7D7E82838484827F807F818256
:10535800807D7975777B828B8F908A82797472775A
:105368007C828785867F7E7E7E81838082817F8026
:105378007B7D7D7F828483827F80808384817D752D
:1053880071737B848F9292897E757070777E858A1F
:1053980085867E7B7D7C82848284807F7F7C7C7E08
:1053A8007F838382827E80818484807A746F737B1A
:1053B80085909491877A726D71797E888586817CD3
:1053C8007D7D7E8280818280817E7C7C7D7F8280E3
:1053D8008280808584858078736F727D87939691AB
:1053E8008579706E7479858688857D7C7A7C7F7FE7
:1053F80080838384827F7C7C7C7F8180807E8385A0
:1054080087867C746E6E78829095938A7D747073AB
:10541800788382898481837D7E7C797D82868A8671
:10542800827D7B7C7F818280838685888077726E8F
:10543800767F8C92918A7F78757679807D86828155
:105448008680807C777B7E838986837F7B7C7D7D5D
:10545800817D818785888277726E757F8A9390892E
:105468007E7675757B817E84827F84817E7B777B67
:105478007F848A84827F7A7E807E7F7B7F84848615
:105488007D74717178848C908A827A7675797C7D46
:1054980082818284817F7B767B7D858783817F7C07
:1054A8008181807F7E808586847D7272737E8A92F8
:1054B8008E877C79767B817F847F7F8281817F79EB
:1054C8007D7F828683817F808283817E7D7F8588C0
:1054D800857D7472757F8A908C867B7A767E8180D2
:1054E800867D828181837D7A7E80858782817E81A7
:1054F8008283827D7D8285878379747078848B8F9F
:105508008A7F7A77797E7F837F7D8280827D7A7BAE
:105518007D8182817E817F83837E7D7A818685827B
:1055280076707279858E8C877E76797A7F837E7E97
:105538008080817F7D7D7D81827D7E7E8086848066
:105548007D7B81888682776E727987918D887A745F
:10555800777882817E8180817F7B7C7E7F82807C60
:105568007F808586817F7D808786827A70727A883F
:1055780092908A7E7776798181838482827D7B7F0F
:105588008182837E7C7E80878781817E8389857EF8
:105598007570757F8B918D867D77767B7F7F85850E
:1055A800837F797A7E8183817B7D808488807D7DFD
:1055B800818A8981776F717D888E8F867E79767BE7
:1055C8007C7D838686817B787B7F81817D7D7F84DE
:1055D80085807C7D8289877F756D707B888E8E85BE
:1055E8007D77747A7A7D8587857E77777B808380DF
:1055F8007C7D808484807E7F8389857D746F7480C0
:105608008B8F8D847E76757B797E89888780777786
:105618007B80837F7D808182827E7E83878982777B
:10562800707078858C8E8C837B75767A7A818A897E
:10563800857D76797E8183807F838282817B808865
:105648008B8B807470727C888C8F8B817C7475795D
:105658007B868D888379767B7D7F817E8386828039
:105668007A78838A8B87797170747F878B90898029
:1056780077717477808C8C857E76777B7B8081824E
:1056880088867F7C777C888B898276737378838819
:105698008E8F877F73717477838D8A847C75787B0E
:1056A8007B7F7F8288837E797880898A867B727205
:1056B800747C85898F8B82797072757B898C8882DE
:1056C8007976797A7D81838988817B767B868B8BD5
:1056D800847A7573757E868D918B82777176777DE6
:1056E800898B87827A7879797D808489867F7A79AF
:1056F8007E878A8881797473767F878E9089807790
:1057080072767A7E888C88827A77797A7E838688A0
:10571800867F7A7A7F868988827A7573767D868C89
:105728008F89817A7375797B858B87837C77797A82
:105738007C828385867F7A7A7F868A88837B757464
:10574800757B858B908B837A73757A7B828B8A8342
:105758007C76787D7E80828487827B7A7C83898947
:10576800857F78737377808A8D8D877E7974757A53
:105778007C858B867F77767D7E7E808184847E7B28
:105788007C80878685837C7774757C84898B898403
:105798007E7976777E7F8389857E7B797C81807F21
:1057A8007F808283807F80828685817D7977787B00
:1057B8008086888786827C7A787B807F8085837ED6
:1057C8007D7C7F827F7C7E828685828080838382C7
:1057D800817F7E7B797B7F8386878885807E7A7AC6
:1057E8007D7C7E8686817F7D7D807D7A7F838686AF
:1057F800817E7F80818283807E79767A7D7F8487AF
:105808008887807B7B7A797E7E8186837D7C7C7DA0
:1058180081807F828484837F7D81838283817E7C73
:1058280077777A7E8285868483817F7D7E7C7B7F85
:105838007C7D7F807E7F8180817F7C7D808181806F
:105848007F7F807F7F7E7E7F7F7E7C7D7D7D7F806A
:1058580081828381807F7C7D7E8080807F7F7E7E49
:105868007F808282828281807F7F7E7F808081802C
:105878007F7F80808080807E7F7E7F7F8080838224
:105888008081807F7F7E7E7F7F7E80807F80818118
:105898008182807F7E7D7F7F808181828080808001
:1058A8007F7E7F7F8080808081818182807F807EF3
:1058B8007E7F7E7F818181817F7F81828080807FE2
:1058C80080807F80807F807F7D7D7D7D7E7F8080E2
:1058D80081807F7F80807F7F7F7C7D807E7B7E81D3
:1058E8008181807D7E81807F808080817F7F7F7DB8
:1058F8007E7E7D7D7E7E7F808081828081817E7DAF
:105908007E7C7C807C7B81807C7E838383827E7F9F
:10591800827E7C7D7E8082828182807D7C7B7B7D95
:105928007F80818384848281817F7D7D7D7C7E7F71
:105938007D7F84817E81858383817E82837F7D7E56
:105948007E8082828384817D7B7A7B7E8081848550
:10595800858482807F7E7C7D7D7B7E807E7E848345
:105968007E808484817F7E80827F7D7D7F8182822C
:105978008383817D7A797A7B7D8187878586848018
:105988007E7C7A7B7E7C7B7E81807E8184837E7E2A
:1059980082817E7C7B7E817F7C7E81818182828008
:1059A8007D7977797B7D808487878583817F7D7A00
:1059B8007A7C7D7D7D7E7F8182808185847D7E82EB
:1059C800817C7B7D808282808081828080817F7CD7
:1059D8007A7A7A7C7F818385858583807F7D7B7ACF
:1059E8007B7C7F7F7F80808182808185837D7D81B4
:1059F800817D7C7E818483808082827F8082827F99
:105A08007C7B7D7E7F818486868583817F7E7C7A90
:105A18007D7F7E7E80817F7F8284828184827B7A83
:105A28007F807D7D81828282807D7E807E7E828273
:105A38007F7C7C7C7D7E7F818384838282817F7C66
:105A48007D7E7E7C7D7F818180808283817F818154
:105A58007D7A7D81807C7D808282807F7E7F7E7E54
:105A68007F81817E7C7C7C7C7D7F81838383828334
:105A7800817D7C7D7E7C7B7D80807F808182828130
:105A8800808080807D7C7D8182807F828483807E0F
:105A98007E7E7E7E808181807D7D7D7D7E7F81830F
:105AA80084838381807F7D7C7C7E7D7C7E807F80FB
:105AB8008181818282818081807E7C7E8081807FDD
:105AC800818483807F7F7E7E7F818282807D7D7DD1
