:020000040800F2
:100000000050002021020008270200082B020008EF
:100010009D020008A1020008E9020008000000009B
:100020000000000000000000000000003103000894
:10003000350300080000000039030008CD0800085F
:100040004D0300084D0300084D0300084D03000850
:100050004D0300084D0300084D0300084D03000840
:100060004D0300084D0300084D0300084D03000830
:100070004D0300084D0300084D0300084D03000820
:100080004D0300084D0300084D0300084D03000810
:100090004D0300084D0300084D0300084D03000800
:1000A0004D0300084D0300084D0300084D030008F0
:1000B0004D0300084D0300084D0300084D030008E0
:1000C0004D0300084D0300084D0300084D030008D0
:1000D0004D0300084D0300084D0300084D030008C0
:1000E0004D0300084D0300084D0300080000000008
:1000F0000000000000000000000000000000000000
:1001000000000000000000005FF808F100B583B0B7
:1001100000F0AAF9304B314A1360314A1360314B79
:10012000314A32498B4204D21168196004330432D7
:10013000F7E72A4B1A682E4B9A4200D0FEE7284B6D
:100140001A682C4B9A42F9D1234B2B4A13602B4A45
:1001500013602B4B02E000221A600433294A9342B9
:10016000F9D3254B1B6813B9244B1B6803B1FEE779
:1001700000F086F9694601A800F022F9224C234BD1
:10018000E41AA4100025AC4214DC214C214BE41AE3
:10019000A4100025AC4213DC0099019800F0CEFBBE
:1001A00005461D4C1D4BE41AA410002C0EDC2846FD
:1001B00000F0E2F8154B53F8253098470135E2E797
:1001C000144B53F8253098470135E3E7013C134BB6
:1001D00053F824309847E8E7BABADECA0000002096
:1001E00084000020000000208CAF00088800002060
:1001F0007856341232547698880000202801002066
:10020000880000202C0100207803000878030008F3
:1002100078030008780300087803000878030008D2
:1002200008B5FFF773FF00BEFEE71EF0040F0CBF1A
:10023000EFF30880EFF309807146414A10472DE93A
:10024000F04182B004468846124B5E6B9F6B9D6AFC
:100250001B6B13F0020F03D00E4BDB6A002B0CDB81
:100260000D4800F0B5F8CDF800803B4632462946EF
:10027000204600F009F900BEFEE74BF6AB6100F046
:100280007DF90028ECD0034B4FF00042DA6202B057
:10029000BDE8F08100ED00E02813000800BEFEE795
:1002A0001EF0040F0CBFEFF30880EFF309807146D6
:1002B000244A10472DE9F04182B004468846084B95
:1002C0005E6B9F6B9D6A074800F082F8CDF8008056
:1002D0003B4632462946204600F0D6F800BEFEE7EF
:1002E00000ED00E0381300081EF0040F0CBFEFF320
:1002F0000880EFF309807146134A10472DE9F04159
:1003000082B004468846084B5E6B9F6B9D6A074827
:1003100000F05EF8CDF800803B4632462946204684
:1003200000F0B2F800BEFEE700ED00E04413000864
:1003300000BEFEE700BEFEE700BEFEE7704700001D
:100340003F020008B5020008FD02000800BEFEE7FB
:100350008CAF000800000020880000208CAF00084F
:100360000000000000000000880000202C01002098
:08037000000000000000000085
:10037800FEE7000008B503460C4A12685AB10B4A5A
:100388001068033323F003030344094A934206D851
:10039800064A136008BD054A06491160EFE700F0F8
:1003A80001FB0C2303604FF0FF30F3E78C000020C3
:1003B800004C00202C01002001230360014B0B603E
:1003C800704700BF040000200FB400B583B004AB31
:1003D80053F8042B01938021064800F015FB0028F0
:1003E80003DD0146034800F037F803B05DF804EB7D
:1003F80004B07047940000202DE9F04385B004460E
:100408000F4643560BB10E461EE0042528462146EA
:10041800ABBE0446384605B0BDE8F08314F9011BAD
:1004280004AA1A4402F8101C0133AB42F6D304AAFA
:100438001344002203F8102C4FF00408E946404604
:100448004946ABBE8046761B002EE3D03546102EBB
:1004580028BF10250023E8E708B5FFF7CDFF08BD42
:1004680008B500F0FDF8024A024B9A6008BD00BFCB
:100478000000000800ED00E008B500F019F908BD1B
:10048800F8B504460D4617461E462748FFF79CFF59
:1004980021682648FFF798FF61682548FFF794FF11
:1004A800A1682448FFF790FFE1682348FFF78CFF15
:1004B80021692248FFF788FF61692148FFF784FF17
:1004C800A1692048FFF780FFE1691F48FFF77CFF1B
:1004D8001E48FFF779FF29461D48FFF775FF1D4C99
:1004E800E16A1D48FFF770FF216B1C48FFF76CFF9E
:1004F800E16B1B48FFF768FF15F0800F0AD115F470
:10050800004F0CD11748FFF75FFF06991648FFF711
:100518005BFFF8BD39461548FFF756FFEFE7314650
:100528001348FFF751FFEDE70C1200081C120008F2
:100538002C1200083C1200084C1200085C1200083B
:100548006C1200087C1200088C1200089C1200082B
:10055800A812000800ED00E0B8120008C812000850
:10056800D81200080813000810130008E812000841
:10057800F812000883691A888A4201D0002070475F
:100588000268033A012A03D80233836101207047C5
:100598000020704782B00023019300932C4A13680F
:1005A80043F4803313602A4B1B6803F40033009331
:1005B800019B01330193009B1BB9019BB3F5A06F0D
:1005C800F1D1234B1B6813F4003F06D0012300939D
:1005D800009B012B04D002B0704700230093F7E77B
:1005E8001C4B1A6842F010021A601A6822F00302C3
:1005F8001A601A6842F002021A60A3F580535A681A
:100608005A605A685A605A6842F480625A605A6856
:1006180022F47C125A605A6842F4E8125A601A6846
:1006280042F080721A600A4B1B6813F0007FFAD000
:10063800074B5A6822F003025A605A6842F00202D5
:100648005A60034B5B6803F00C03082BF9D1C2E72F
:10065800001002400020024008B5FFF79BFF08BDCC
:1006680008B5104B1A6842F001021A6059680E4A20
:100678000A405A601A6822F0847222F480321A60A2
:100688001A6822F480221A605A6822F4FE025A601C
:100698004FF41F029A60FFF7DFFF044B4FF0006230
:1006A8009A6008BD001002400000FFF800ED00E06D
:1006B8001F4B5B6803F00C03042B15D0082B17D0D5
:1006C8001BB11C4B1C4A1A6002E01A4B1A4A1A60EA
:1006D800174B5B68C3F30313184AD35CDAB21549A6
:1006E8000B68D3400B607047124B134A1A60EFE750
:1006F8000F4A53685268C3F38343023312F4803FAE
:100708000AD00B4A526812F4003F0BD00C4A02FB85
:1007180003F3084A1360DBE7094A02FB03F3054ABF
:100728001360D5E7044A02FB03F3024A1360CFE7DC
:10073800001002401C00002000127A000C0000206B
:1007480000093D0010B4012824D018B1022841D076
:1007580010BC7047072910D90F29F9D8A1F108044E
:10076800E4B2A4000F23A3402A48016821EA030346
:1007780002FA04F119430160EAE789000F2303FA3A
:1007880001F0254C236823EA000302FA01F119431A
:100798002160DDE7072910D90F29D9D8A1F1080070
:1007A800C0B280000F2383401C4C216821EA030358
:1007B80002FA00F119432160CAE789000F2303FAFE
:1007C80001F0174C236823EA000302FA01F11943E8
:1007D8002160BDE7072910D90F29B9D8A1F108036D
:1007E800DBB29B000F2098400E4C216821EA0000E4
:1007F80002FA03F101432160AAE789000F2303FAF3
:1008080001F0094C236823EA000302FA01F11943B5
:1008180021609DE70408014000080140040C0140E4
:10082800000C01400410014000100140034B4FF43C
:1008380080321A60043301221A60704700100240A7
:100848001F291CD801280BD010B1022810D07047DE
:10085800012303FA01F10A4A13680B431360704736
:10086800012303FA01F1074A13680B431360704729
:10087800012303FA01F1044A13680B43136070471C
:10088800141002401C10024018100240014B0022B4
:100898001A60704710E000E0074B58601A6842F091
:1008A80001021A60054A1160054A012111701A688F
:1008B80042F002021A60704710E000E014010020C4
:1008C8001801002008B50A4B1B785BB9094B1A6858
:1008D80022F002021A601A6842F001021A6000222D
:1008E8005A609A60044B1B689847024B1B6808BD06
:1008F8001801002010E000E0140100200A4A1388C3
:100908009BB20A49C95C0A4B1960138801339BB230
:10091800138013889BB249F60242934200D0704775
:10092800014B00221A80FAE71A010020541300082C
:100938000C08014008B5FFF779FF02210846FFF7C8
:100948007FFF022200210846FFF7FCFE0222012158
:100958000020FFF7F7FE022211460020FFF7F2FE03
:10096800022203210020FFF7EDFE022204210020CD
:10097800FFF7E8FE022205210020FFF7E3FE02222E
:1009880006210020FFF7DEFE022207210020FFF7E4
:10099800D9FEFFF77BFF02497D20FFF77DFFFEE7C9
:1009A80005090008014B1868704700BF20000020A7
:1009B80030B5141E05469BB0184605DA8B234FF058
:1009C800FF302B601BB030BD4FF40273ADF80C3014
:1009D8000CBF234604F1FF33029305934FF6FF73D0
:1009E80000910491ADF80E3002461E9B69462846D8
:1009F80000F072F8431CBCBF8B232B60002CE1D0A5
:100A08000022009B1A70DDE707B5009313460A46DB
:100A1800014603480068FFF7CBFF03B05DF804FB0D
:100A2800200000202DE9F0478E6882469E420C4641
:100A38009046994637D88A8912F4906F31D00223AC
:100A4800256809696F1A656905EB450595FBF3F596
:100A580009F101033B449D4238BF1D46530530D57B
:100A6800294600F035FB064650B90C234FF0FF30FD
:100A7800CAF80030A38943F04003A381BDE8F0879A
:100A88003A46216900F0B4FAA38923F4906343F04D
:100A98008003A38126613E4426604E466561ED1BB6
:100AA800A5604E4500D94E4632464146206800F0C2
:100AB800AAFAA36800209B1BA36023681E44266033
:100AC800DCE72A4600F05EFB06460028E2D12169F1
:100AD800504600F0B1FAC8E72DE9F04F9DB00393F6
:100AE8008B8980461D060C4616460FD50B696BB9D7
:100AF800402100F0EDFA2060206128B90C23C8F8E5
:100B080000304FF0FF30C7E04023636100230993B2
:100B180020238DF8293030234FF0010B8DF82A302F
:100B280037463D4615F8013B0BB1252B3ED1B7EBB7
:100B3800060A0BD05346324621464046FFF772FF5D
:100B4800013000F0A480099B534409933B78002BA3
:100B580000F09D8000234FF0FF32CDE90523049378
:100B680007938DF853301A932F46052217F8011B67
:100B78004F4800F02FFA049BD0B9D90644BF202271
:100B88008DF853201A0744BF2B228DF853202A785A
:100B98002A2A15D02F4600200A25079A394611F827
:100BA800013B303B092B4DD9B8B10FE02F46B8E7D0
:100BB8003F4A3D46801A0BFA00F018430490D3E7E9
:100BC800039A111D12680391002A01DB079204E0C1
:100BD800524243F00203079204933B782E2B0CD128
:100BE8007B782A2B33D1039B02371A1D1B6803928B
:100BF800002BB8BF4FF0FF3305932E4D03223978F1
:100C0800284600F0E7F938B14023401B03FA00F00A
:100C1800049B0137034304933978062226487E1C37
:100C28008DF8281000F0D6F9002838D0234B13BBD4
:100C3800039B073323F0070308330393099B4B44B3
:100C480009936DE705FB023201200F46A6E7002352
:100C58000A25194601370593384610F8012B303A12
:100C6800092A03D9002BC8D00591C6E705FB012145
:100C780001230746F0E703AB00932246104B04A973
:100C88004046AFF30080B0F1FF3F8146D6D1A3893B
:100C98005B063FF536AF09981DB0BDE8F08F03AB92
:100CA80000932246064B04A9404600F081F8EAE783
:100CB80056AF00085CAF000860AF000800000000F5
:100CC8002D0A00082DE9F04791461F468A680B69EE
:100CD80006469342B8BF1346C9F8003091F843203E
:100CE8000C46DDF8208012B10133C9F800302368C2
:100CF800990642BFD9F800300233C9F80030256898
:100D080015F0060507D104F1190AE368D9F800209F
:100D18009B1AAB4229DC94F843302268003318BF91
:100D2800012392062ED404F1430239463046C047C7
:100D3800013021D02368E56803F00603042B18BFAF
:100D48000025D9F800204FF0000908BFAD1AA368A4
:100D5800226908BF25EAE5759342C4BF9B1AED18BE
:100D68001A344D451AD1002008E00123524639466D
:100D78003046C047013003D14FF0FF30BDE8F0875F
:100D88000135C2E73020E11881F843005A1C94F875
:100D980045102244023382F84310C4E70123224657
:100DA80039463046C0470130E6D009F10109D8E795
:100DB8002DE9F04301F1430C0C46097E85B06E29FC
:100DC8001746064698460C9A00F0B38022D8632945
:100DD80036D00AD8002900F0B980582900F083805D
:100DE80004F1420584F8421032E0642901D06929EF
:100DF800F6D120681368050603F104012AD51B689B
:100E08001160002B03DA2D225B4284F843206F48DF
:100E18000A2239E0732900F09D8008D86F2920D074
:100E28007029DDD1236843F02003236003E075298E
:100E380017D07829D4D17823654884F8453055E00F
:100E4800136804F14205191D1B68116084F84230CB
:100E580001238CE01B6810F0400F116018BF1BB213
:100E6800CFE713682568181D1060280601D51B6890
:100E780002E06806FBD51B886F2914BF0A220822E6
:100E88005248002184F843106568002DA560C0F21F
:100E98009580216821F004012160002B3DD1002DAF
:100EA80040F08E806546082A0BD12368DB0708D5F9
:100EB800236962689A42DEBF302305F8013C05F1D8
:100EC800FF35ACEB05032361CDF800803B4603AA50
:100ED80021463046FFF7F6FE01304DD14FF0FF3086
:100EE80005B0BDE8F083394884F8451013682168D7
:100EF8001D1D1B6815600A060BD5CA0744BF41F0C3
:100F0800200121601BB9226822F0200222601022F1
:100F1800B7E74D0648BF9BB2EFE76546B3FBF2F172
:100F280002FB1133C35C05F8013D0B460029F5D1DE
:100F3800B9E713682568181D6169106028061B68E1
:100F480001D5196002E06A06FBD5198000236546C1
:100F58002361B9E71368191D11601D6862680021D3
:100F6800284600F037F808B1401B606063682361C9
:100F7800002384F84330A7E723692A4639463046D8
:100F8800C0470130AAD023689B0713D4E068039BAD
:100F98009842B8BF1846A3E701234A463946304667
:100FA800C04701309AD00135E368039A9B1AAB42D7
:100FB800F2DCEBE7002504F11909F5E7002BACD1C9
:100FC800037804F1420584F842306CE767AF000803
:100FD80078AF000810B5C9B202449042034601D167
:100FE800002303E01C7801308C42F6D1184610BD6E
:100FF80010B5431E0A44914200D110BD11F8014BAF
:1010080003F8014FF7E7884210B501EB020307D850
:10101800421E99420AD011F8014B02F8014FF8E735
:101028008342F5D98118D21AD34200D110BD13F8E2
:10103800014D01F8014DF7E738B50546002943D0C1
:1010480051F8043C0C1F002BB8BFE41800F0D0F88E
:101058001E4A1368104633B9636014602846BDE819
:10106800384000F0C6B8A3420BD9216862189342F1
:1010780001BF1A685B685218226063600460EDE77C
:1010880013465A680AB1A242FAD919685818A042F8
:101098000BD120680144581882421960DED11068CB
:1010A8005268014419605A60D8E702D90C232B60B2
:1010B800D4E7206821188A4201BF116852680918CC
:1010C800216062605C60C9E738BD00BF1C01002078
:1010D80070B5CD1C25F0030508350C2D38BF0C253F
:1010E800002D064601DBA94203D90C2333600020FA
:1010F80070BD00F07DF8214A1468214691B9204C52
:1011080023681BB9304600F063F820602946304652
:1011180000F05EF8431C24D10C233046336000F005
:1011280068F8E4E70B685B1B18D40B2B0FD90B602E
:10113800CC18CD50304600F05CF804F10B00231DAC
:1011480020F00700C31AD3D05A42E250D0E74B68C8
:101158008C4216BF636013600C46EBE70C46496887
:10116800CCE7C41C24F00304A04205D0211A304661
:1011780000F02EF80130CFD02560DBE71C010020FD
:1011880020010020F8B5074614460E4621B9BDE8EF
:10119800F8401146FFF79CBF22B9FFF74DFF2546DF
:1011A8002846F8BD00F026F8A0420FD2214638465E
:1011B800FFF78EFF05460028F2D031462246FFF79A
:1011C80017FF31463846FFF737FFE9E73546E7E7C7
:1011D80038B50023054C054608462360FFF7CAF8D2
:1011E800431C02D1236803B12B6038BD24010020C1
:1011F8007047704751F8043C181F002BBCBF0B58B0
:10120800C0187047537461636B206672616D653AEC
:101218000A000000205230203D2020253038580A8E
:1012280000000000205231203D2020253038580A87
:1012380000000000205232203D2020253038580A76
:1012480000000000205233203D2020253038580A65
:101258000000000020523132203D20253038580A45
:1012680000000000204C52203D2020253038580A2C
:1012780000000000205043203D2020253038580A27
:101288000000000020505352203D20253038580AD5
:10129800000000004653522F4641523A0A0000000F
:1012A8002043465352203D2020253038580A00005C
:1012B8002048465352203D2020253038580A000047
:1012C8002044465352203D2020253038580A00003B
:1012D8002041465352203D2020253038580A00002E
:1012E800204D4D464152203D20253038580A0000F7
:1012F8002042464152203D2020253038580A00001F
:101308004D6973630A000000204C522F4558435F13
:1013180052455455524E3D20253038580A00000099
:101328005B486172644661756C745D0A0000000078
:101338005B4275734661756C745D0A005B55736139
:1013480067654661756C745D0A0000007B6F5C63BD
:10135800869EC1C5A298886963473E66748A968648
:10136800847F5238272F5D8493CFE7C5B982696A95
:101378005B4E6C83A3C2B29A9476676341587684B5
:10138800999A898F75503F36528797BCEBD5C09C88
:10139800786B6B57687C8FAEAF9D8D805F5D483BE7
:1013A8005F72829C8C8680543428335D889CE0EA86
:1013B800CEB5846B685854738FAEC4BC9C98735D6B
:1013C8005F3D5671829EA592927646362B47758967
:1013D800C0EACCC19D77695D4258788EA9ADA194C9
:1013E80090605F4E456A7C8AA39A978A563D2F493A
:1013F8007188B3E3D0BF9B786D5948536F8AB3B4F3
:10140800ABA28E6D675849687788A59C948F603821
:1014180029355874A2E1DCCBAF83786750536D84CB
:10142800ADB6A79C8E695B573C57767C9B9C909188
:101438006C38252E577998E2E8D5BC8B6D674E4DF0
:101448006B82B0C7BEA89F7B625D474267708CA560
:1014580097967F4D2428426586D2E8D5CD9A7D722D
:1014680050425A7297B4B4A8A38B695B4B4559652F
:10147800769692907F49302747708ED1F0E1D2A9B5
:101488008C846153607B9AB8B5AEA78C6F5A5B5257
:101498005D667592A0907C4B2218365870B9D0D0F2
:1014A800CBA17E7F5B4D56688AADADA9AB8B7A57D1
:1014B800545C657388A0B6B199673B2A456380C3BD
:1014C800D2D4CEAB887B4944536787A6ADB2B18BE3
:1014D800724C3E4D5753747F9AA78A59351F3A5A12
:1014E8006AB7C8CDD2AD91896857636E8CAEB0B873
:1014F800BCA08E75516775687B848DA9975F431F63
:10150800395772A8BDBABCA18072504D59647898F9
:1015180095A5A28874614B547D7688929BAFAB7277
:101528004F2F396C7EB6D1D6D6C29C88614F555D97
:101538007C93A5ADAE937F5A3B374C63767E8797F5
:10154800A48B562A16436297BBBDC9C6AC906F5A86
:101558005F668191A7BABCA28F795D554B5C89976C
:101568008F9D8A90713D1E254A7FBFBDC1C1AB9C2E
:101578007C49475C708B98ABC5B695725648504805
:10158800528EB4B6A08E7E713C1819439CDBCCC435
:10159800BFB6A56733406577878AB2CFB98D6B58D8
:1015A8005951445387BFCDAA8B8671491F0D2B848F
:1015B800BEC3B8B2B9A9613641517B8E8CB5DDCABC
:1015C800A0725D66563F4B72A9C4B19D9782653B78
:1015D80023364281C1C4C7BBA08D5F3A48576E8984
:1015E8008BB0C2A98F6C5B5B4E4859719CB9B2A392
:1015F800A7937F5D4E56544C7ACED7C59889917281
:10160800424355879A8BA0B6B28F5D4262585153B8
:101618006393AAA59D9483795B4952696F6F89AEDC
:10162800D2BF8D80947A58586CA2BC988FB0A2868D
:10163800603D4F735F62809EC2A27A7370645F538D
:10164800628086827B808B838277778C8172889494
:1016580092987F7A887E6D6F70899B8D83908C8F2E
:10166800897280858C8E8185A3917B68585D4C53E7
:101678008796988B768978564A4E5A6F7487A7A8AA
:101688009E9B8B827B737C8795ACA7A0A0988A8150
:10169800706B736D777C7C806B547A947D71567116
:1016A8009D6E6369728E896E798E948F7785A29606
:1016B800848E8FA49C82828D8D9376687B827361E1
:1016C8005C6B6A585355959B88817C85895B5076FD
:1016D80082908C90B3BB99897E848D77708FA6AAEF
:1016E800958084856F59495A737E777F89887B5C9A
:1016F80052534A3A7A98A5AF9AAFB28476717295E6
:10170800958AA3C0B8A0726574664450667E9280BC
:10171800838E7C716251616E6D798786886299CFFC
:10172800A79D8F9DB6875C6C7988865F709C846462
:101738005257786845627D90A0878CB7B29C918B90
:10174800A69F7D85898273583D5092886966718EFF
:101758007948586A6C79707FB6B39B998EA59A7749
:101768007F9CA5B29D92A0907666534F4A2D352551
:1017780077C19C949C918A592C5A70859595C0F490
:10178800BD89836E76623F64969CAD9A8FA285541C
:10179800453B494D4D7075B7F5C1A79F7F7E644A9B
:1017A80074949BB0A6AFC28E4F473D42473B6BA295
:1017B800989483625E513C3C46596A67CEF5BCB644
:1017C800AAA6AD725190AFB2AA9FB6CF94606866D0
:1017D8006B615985B0A9988D87844E2E4353454730
:1017E800B8FCE5C6ADB6B3733951768F9488B4D0DA
:1017F800A2755E505A54446394A6A1948F91734085
:101808002A2211449DAB9F9E8671491D17213E6770
:101818008195B5B1875C381A0F030F3B5B68828DE1
:101828007B734B2F28397CD0DBD0D8C3B58D433997
:1018380060616F96C5F8FCC0A191837B625C92BA27
:10184800B4BEB7B08C5E44383975AEA4A29E8B770F
:10185800451A19203C557284968871674B495E6D0C
:101868008EB6B9C5D0CAAB784C4E6E96D9EBE3FAB2
:10187800E4B68E665E677586B8E0EEDDC6C3AB89F2
:1018880069728A9199ABADC8B57855354E5B85A11B
:101898009BA7B3976E47211F272F40718899887699
:1018A8007373687171607F857C86765F6751738614
:1018B800B3F5D7B8BCA6805C374E8094A0B8C0CF2B
:1018C800B58569727C847D82ABB199887655371568
:1018D8004E668ABF998A9467322810214A5B7CAE8B
:1018E800B4B2A073585446352F37575F5C615C4AD1
:1018F8003518445C91D3BABBD2B28A7C5864888DBF
:101908009DCDE3E8C89A857A6F4F3E597E867E6FF3
:101918005E47240E364A8EDFCACFD7A883633B467C
:10192800616787AFB8C3A675594E402C28456F7DAF
:101938006D5B472E1616405498CDBBC5BE948B736D
:10194800566B8187A6C3C9D1C0A097A687645D6777
:101958007E7B6B788074626E8488D2E6CCE3D5ACEB
:101968009E744F5C5E5A768EA3AE95736B6C391F6E
:101978002A51797E7C806E4B2B3B5A80D2E0D3E68D
:10198800CB977943324852628CA5B9BB8D78816C6C
:1019980041466780A0ABA4B7A28B93ACACC1FFE66D
:1019A800D5E3B4907F544C65535875799F9E7F81D9
:1019B8008C704D57555B6762707A6355648286B147
:1019C800DCB9B8B6836B552C323730546F839C9C86
:1019D800879299655560677B818BA89F76595A7065
:1019E80073ABD5C6DEDCC5B68B5B5F61638499B02B
:1019F800CDC29CADA56D625E637C7375855D39351E
:101A080047525D9DA493997E6F72564965697185A9
:101A18008488A28D7FA68C676C5D56533E505F41CB
:101A28003B47677490C7BFC4D3B49D886869726B1D
:101A380083AFCBE9F6D8E4EB9A6C6554594F456609
:101A4800603B2F323F417AA697ABB2A09B7F4F4CA9
:101A5800584F557B97ABAEA6CEC28A7055453E1FF0
:101A6800223D2F272D4D6F698CA393A5B2A7A39A6A
:101A7800818B928D818DA8B1A49EB8A07E78757354
:101A88006D5B676E585B5B697B8CDCE9C7D7CDB350
:101A9800A6826477756A656E7F827D8A9C7D5F56B3
:101AA8004F3B323C4B3C2D3948626363AFC0A4B70F
:101AB800BAB8A380706B5A45374B6A777DA3B79E37
:101AC8009FA9A2825F5A625A59626D8794A0E1FC6D
:101AD800E2E8E8E0C39086846859504A504E476768
:101AE8008B857377826E626661524A443A45555FC8
:101AF8009BC8B9C5CABEB58A757C604C5A5B5C6325
:101B08004E536E6A6D8088909598A5997F868F8BC5
:101B18008A7E7E88929D9D9D999CA59D9B9B969073
:101B2800837E7D8B9B8F87837B73645F7184877FC4
:101B38007268655F5962635F67665B6780817B82F5
:101B48008A8B93978F9996889395908E7D717474EC
:101B580072706560686E75858D837E766C6D6A655A
:101B68006E93ABAFBABBB8BBBDBDC1B49D93807B10
:101B78007765625343505D545B6C70776F6A645D40
:101B880068626376818E99A1B6C9C2BFB8ACAD9CB4
:101B980087766B666865524F4E4B515C6F777B7BDF
:101BA8007478818380776F78736F716A7B8A8A947F
:101BB800969094998F92A2A19A8B8186878F9A8BFF
:101BC80081888C96908E999289807C7861504E534A
:101BD800616C635D6A7473777A7D898A929689935A
:101BE800958B827376776D6765717C706A6E6562B6
:101BF800696A71868C7D76706C7378818592A8B1DC
:101C0800C0C8C5C6BEAC9B9190867A7B796E686267
:101C1800564B5458597181868C8E8578777B797AA2
:101C28007B83909596928F8E7B6A727A77777E7C8B
:101C3800787766514F545C718B928985838B9A9A19
:101C48009394949389817F7874746B687A88878475
:101C5800959FA1A39E91979D98999D9F9C93817C08
:101C680077797369687275786D5955534F48475538
:101C7800696E848D92998F7E8792979CA0ADA49867
:101C88008C807273696E7B7C797970707267716809
:101C980065767A7B949399A29A908E969B959EAF3F
:101CA800A49B8A807E796E6F676367625A514A4D3A
:101CB80055525D6A79828D8D9499A1988F9DA09CCB
:101CC800A2ADACA59386807F6D6469656272766704
:101CD800696A6464707D807685928D8A7D6B68639D
:101CE800677374828A87878076766B667C989FAFE5
:101CF800B5A2A8AA9E8F85919B8C7F8D827B6C5AFA
:101D08006652625E687B716C69696778748499A7AA
:101D1800AAABA89C938880816E6B766F6D63675DB4
:101D28005B5C5D656B6A717B767E7C6F86938E9853
:101D3800A1ACB3C2C1B6AEAD998A898184858585C7
:101D480089837D6A61594F414349486278878B91FD
:101D58008880888F91949B979091887B736B777C10
:101D6800838D8C84737666606554676C787E7F811A
:101D7800858D8FA49BA4ACA49E978D7E6B6B6D6C98
:101D8800767A7E887F757E798C8EA3989AA79091B3
:101D9800827681655C765966606769747E737C6754
:101DA80073757A6E617179808A92968792AAA3A5D3
:101DB800A79E908792866E66615D605E6871668098
:101DC800707B8E84979D9694A0908B7E808C819654
:101DD800968D8681857C847E7C81797D88756A6113
:101DE800455548485D5C6D7D8A8E9A9993928A9C88
:101DF800A498979DA29D92988E828A808D85787DE1
:101E08006C686D6C584D4962676E77717D78857422
:101E18007F8081808BA4909A8C828989887A7B8440
:101E28008493827D84788F878198A29683917C7E23
:101E38007563696E72788E818C8374716F837E7D11
:101E48007D70857B7A6D7A877A8D81897E867973B4
:101E58007470685A50646A697777999C9CA09E99B7
:101E680097928D819295A39995AB899278887C7089
:101E78008D66827D736C6E645560667A778A757735
:101E8800657C82758C878C849080756D7D80908D43
:101E98007B96827E7479815E8C8491999BA47795D8
:101EA800726566646882797F897B8B7779768178B9
:101EB80086677B87779072838988958A82909699BE
:101EC8009AA6AA9083787F765866595E857D867330
:101ED8006A745D6D68678C817893808F907A828B45
:101EE800A0A9AB92A2878D93718F7E7A6F5B694CA4
:101EF8005C4D426450826B748C839C919993A3AC23
:101F0800A09FA08F8E8A8B88979081807B7564773D
:101F180063737472766272545B6A68838493969171
:101F2800A0928C8C84848C9791A09E78857871750A
:101F380055646774827C86737A8071786B6B7E7A5D
:101F48007B7D7775797A808380838D9A97A5988B26
:101F5800937382846B7774859895A19A99A38F8DD2
:101F68008E777271756D6E877A5F5F555D6A6C707A
:101F7800727776736B7273737F92A7A8A4A08F96FB
:101F880091848B8C918783836758624D494B587332
:101F980073717B8B84808FA3A1B9C1B8C9B7ADB168
:101FA800A58E8E8C80756F6A5754554D524F3D38AB
:101FB80032373E5F76768B9C9AA8B5A1A4ADA5B5BD
:101FC800B2A09E9C92818770656A5C747A68625739
:101FD80044454D5E7A767E9C9DA4A3A5AFA2A8AA8F
:101FE800B6ACADB394988D7A6F5C5A595855504039
:101FF8002F343848555F8199A0ACBBB7B1A79EA1D3
:102008009D9E9C9791877B75726B675750504C4685
:10201800494C546268778793A5BECACCD1D6D0C242
:10202800B8B2A18C7E7370644F4F423F3E272A2E70
:102038003E5774848C9496A5A1A8B4B3BCBEAAA834
:10204800A98B82747075696E69605C504339363942
:102058004659606E87A1ADAAAFC2C5B5B6ACB2B2DB
:10206800A29698A18E81848275665F4F4F554A5516
:102078005553575E6971788E98908C8A9494908F96
:1020880096A0ADA69999927D6B594A43404A505DF6
:102098006B7886979BA2B2ADA39F9E9B8F85888DF8
:1020A800838387787F847173705E60606067676C14
:1020B8007F8D9BA2A7B0ACA69F90887F7572625651
:1020C800575D59525650474F49486170787D90ABDB
:1020D800B8B9C4D0D2CDBBA49D98908B827C7571C1
:1020E8006556494F52444042414B60646E8F9FA6EB
:1020F800BFCAD8DBD3C8AF9E9D95848179706761CC
:102108005A4F453E2D324340485C62627D90969F0F
:10211800ACB3B9B7AD9C96A7A59C978D8A8F837DE4
:1021280071635F4B3F40383D5156698594A2B7C9EA
:10213800D3CECCBDABACA29A97978C7C746E62560A
:10214800514330292A32434E494865859299A8B0AF
:10215800B4C0C3B7BDC6B4ADA69E8B71644E43422E
:10216800392D323C4F5F6169798A989EB4D8DACCB0
:10217800C5C7BCBAB49B8F948D817B6E61535246A0
:102188003128252A35405F6E738692A5AFA2949CAC
:102198009E9FB0B2B1B5BBB19584765F54504643AB
:1021A80049545B5D6B787D828A95A0AAA497938E2B
:1021B8008B8A8484979D8E8A938F887A6A5E5E6004
:1021C8006463627E88878C939BA09D9C9B978A8082
:1021D800787B8883735C59585358675F514B5662B4
:1021E8005F65718797A8BFC9C1C0B4AAA3978E8736
:1021F8008FA3A38C8471563E3B362929385A777DA4
:102208009199949FA2B6BFC4CFCBC3C7C1AA9382EA
:10221800756150463D2F424433312C2C2D31466E8A
:102228008D96A7C1CFD8CCBBAAABB6B0B1BBC2BA4A
:10223800987D74543628181F334858585F7E999BE8
:1022480099ABBBBCBDB5AAA7A2958D969E9C8D8166
:102258007E745E524A3F322233433E4D5C6A7B9124
:10226800AAB1B6BCC9C7BFC0AEA19F9992847D6F01
:102278005C4F4B3F30292F404151728892A2AFB436
:10228800BFBBAB9E98A8B5B5B6B0B4A792917D6810
:10229800665C4D443B2E2B2C304056697B8B9BBA99
:1022A800C6C7C5BABCB8A9A2A29E8579735A443FCD
:1022B8003B2B283949485368818784A4ACAAB8AC19
:1022C800A1B2B6B7B4A9AFAF998B91978F7F756656
:1022D8004D3A32332F3A586F8599A1B0B4AAA4A1C8
:1022E8009C959A96938E87705B5546374250474B1C
:1022F800545F636A717D818299ABB5C5BEAEB6B5D0
:10230800B4ACA19B98948A8D89725F5C4A2D283A57
:102318003F48637C8B9096A1A9A1ACB5B0AFB5B688
:10232800A5A193928374776254534331211F2B2EB6
:1023380035506C83908C94A7ADA7B6C9D0D6CDB7CD
:10234800B2AB9A867F877A6D65543F332C303E490D
:10235800566C858A8C9A9FA3AABAC5BFC5C7B6B85A
:10236800B79F8C857469604E4328171D2C323E51E7
:102378006B7D768192A3B4A8B0C2BDBBA28C9398A2
:102388008A807E787B6C60594847494D59677488C4
:10239800929298A0A19FA8BCC4C7D3C2BCBAA69168
:1023A800837A694F3B2E201514183A545B788A902B
:1023B8008F909CA7A79FA4AFB3B39F8D908B81816B
:1023C80087958D7366523E362D354D617F928B947D
:1023D800AAADADB0BBD4D8CCD4D5C6BEB19995976B
:1023E8008162493626242C3E4D50637C8683839334
:1023F800A8ABB0BEC0AD9E947D7D91887B8C999032
:102408007B6D5C3E210F152B35485A5E6D71767BCE
:102418007A8DA5ABB0A99E8E7E7C6B5E54483A300F
:102428003236392D232F4E4F4B5E7390A5B5C2C659
:10243800D2D8CAC2B9B3A69A9AA0A1908685746068
:102448006259403A475C67637366667B8DABC2E04E
:10245800DEDFDECAC3A083796762402E281B0D0F1A
:10246800232D3A447D9EAAB4A5B4BCB7B3CBE1EA08
:10247800F8F0DDD7D3A68A7B726D5F66614E46673A
:102488008285A0C8BEBAC0B5CABFA0AFC0ADACA156
:102498008F8B9388777759594B2F321B03194055E7
:1024A80076ABB0AAA8838B978082A1A2ADBAA89177
:1024B800888A615A50597559616E4941606B7CA58B
:1024C800BBBAC0A2A1B59C8FB3B8B3D3BFB3B2B1E6
:1024D80097705748595043492C0C243F3B517A7206
:1024E8007F80718C8F828A9894A3937B71707A55C0
:1024F8003B314C4A2C3929263D6A8391C1C7B49097
:10250800717E79696E97B7D7D9C4C2B4BA90706230
:10251800758D6D584431293E556EA4C3B2A1848788
:1025280091715F75909B9780847D7E684140506073
:102538004F3E4B3E2A4765668AAD919178707F6120
:102548005E819DB0C6ACB5B7B6B78E777D84715243
:10255800503D1D2A5A7791D1CCBCAE8F9F947EAE48
:10256800D0D3ECD2BEB79C9976555C666D5A4D496E
:10257800251E4F626399A69291645C69414F849BC2
:10258800C3D1C4C4A5A39C655E68726E534C3E2536
:102598003B696DA3D8B8B39B798A785F89A6B3CC19
:1025A800C0C8C7BCBF9179858F886C6961434E826A
:1025B8009AB2E5CFB8B0766A60415172859F9B9018
:1025C8008E727A674C6473826E5149220937636848
:1025D800A8C8A6A77A5B674E49708AABBCA9B9ADF3
:1025E8009A946D648091978A7967454E8493ABE994
:1025F800D3C4BC9AA5937686A1B2CCBBB7BBA1982D
:10260800795E5D696853423516002C4E43789171A6
:102618006C43375447518098BECBBCBD9A8E7E55CB
:102628004E5B6B614C50432D48829AB8F1E3D3B2AC
:10263800899176607A8DADD9CDD3D1B9B1836671E0
:10264800878F706157200B38515695B8AAA37667C3
:102658006041445F749EAB9AA28F8C804E46565858
:102668004E444B33173A6F6E8ACABFB49172836A6D
:102678005B7383A1CBBCBBBEA5A28F7B8EA5A190AB
:102688007E653022475F6196B99D94726C7A667454
:1026980091A1CBDCCBC6B2A4966F5A6A736A5D5C13
:1026A8003D1D2A48535E9DA68D754D4540344C6F9F
:1026B80092C9C8C0C9B8B08E676E817B625C592860
:1026C800214A6D79A0C0A49B7C6E7A666A879DC2F8
:1026D800E0D0D1D1BDAC8478888A776F76572D3217
:1026E800687B86C2CFB99F7268614E546F83A4AA73
:1026F800959E91907959666F69575A532614395A9D
:102708005781B5A193745D6655455F849FCAC6C459
:10271800C4A798766B7B8E827A856D4B517C8B92A1
:10272800C8D6C1B3918E87757A98AFC8CDB6C1BEE9
:10273800B69A6F6A726957534A250F1F41446397C7
:102748007E725F3E453D2C507792BFB8B6BEA59CC1
:1027580083656F766E636356383F6B898BC0D3B4DD
:10276800A893898A77759DB6D5E6D4DAD5C1B58D93
:1027780079847E716C69442B3959607CB19A827175
:102788004F4E4C32467285A9ADA4B0A398876564B4
:102798006756494F4026325B7777A7BDA39F81795B
:1027A80081665D7D90A7BBADBDBDACA7806F808005
:1027B8007677704F3A4E7C829CC9AD9E906E73724C
:1027C800627B9EB0CECABDC8B2A28B655E6153491A
:1027D80050391F2650676FA0A38B8A6F67624043EA
:1027E80063769AB2A9BBB9A59E786269665B5F5B9E
:1027F800382A456A78A8CCAA967D666B5F60859A68
:10280800ACCFD3D7E2CDBC9E7F7B7B675D634C3971
:1028180049738393C5BCA39B7C746244566F7697B7
:10282800A7A3B2AAA28E6A676B61524D38120F3EF7
:102838005C6CA7B49B966D5A5E3F49707D9AB3B3A2
:10284800C3C5C1B6846C6D625E6261544565959C72
:10285800C9E7C9BFAA919578627F93AFCCCCD7D886
:10286800C4BEA3847D725549402C161847516FA3E6
:10287800978D7C514C4129435762898B99B8ABAFEE
:10288800A57C6C6A594F50443931577484C3CEC7FC
:10289800C8A99E8E6465767EA5B4B3D6E7E4DCC38A
:1028A800AC9A876D5D524238466B718CB4A4A09780
:1028B8007471533851525D7C76809D9FA2937A73D0
:1028C8005E524D4843312B475A71A3ACA8A68D8C54
:1028D8008160656F6D879898ADBABBB7A6A4A18BC8
:1028E80079665956464D60668BACB3C0B7AFAA8AB5
:1028F800767976808E8E98A9B9B8AFA19C8C7155DF
:102908004A4230282B314979848789858F8D74769E
:10291800797685807B8494989189949689694D49C4
:102928003D34363B4677979BA7AAAEB39F8E9697C2
:102938009A989191A3B9B6ACB2C1B6947369594942
:1029480042404362909AA2A9A3ADB08C8589857D47
:1029580072746E79867A6B747C6F504951413F402E
:102968003C4762838E949A99A1907774767F796EAA
:102978007581909B9A939EA08B6C6D725B52515897
:10298800739FBAC1C7CEDADEC3A8A3A29F8F7E8584
:10299800909490828993856A52564E3B311F2B44FE
:1029A8006B887F838585806C6473807B6E68748197
:1029B80083867B838F866F53514E453E424F709B73
:1029C800AFB4BBC3CFC4AEAEB4B2ADA08EA0B1B3EA
:1029D800AB9CA09F9A7B5E58413434404D75A099BA
:1029E8008F9A9DA39B7C8587807F65596C7C7A78BC
:1029F80073757359403A39342B29384E95BAB0B4A7
:102A0800B1BBCCB8999D978C856E667B958C878970
:102A1800959776554E5050433D5C77ADD9D5D4D275
:102A2800D1D4AF97A597837660698294979291974E
:102A3800895D463833291A294A6494AC989B9E9A32
:102A48008D6E6C7F7E6E666A829CA1A89C8F8F7942
:102A58005B46402E201D325E7DB0C5B3C3C5AFA115
:102A680088899F9E92949CBBC7CCDAC7A2876E4E7A
:102A78004A483E2A2653789ED0B89FAF947B6F541D
:102A8800566260738B92B1AC97A686644A2E1C1C62
:102A98002328283A7994C3E6C1B1A77F696C596C99
:102AA8007B7388909BAFA08F8E6F64615C5F666458
:102AB800616181AEB7EEF5D2CBAE8F8B746A8A8F27
:102AC80091A5A6B4BC918B7A554E4D4744493E34E6
:102AD800376B8094C8A8898E6A5C532F41616277EE
:102AE8008886B1A68B9166524D4853625C5A5661EE
:102AF800959ECCEAB0B0A48695786889979FBDC5A5
:102B0800CFDCBFB4A27E71635B5A584C50496C90BD
:102B18009BDDCDA1AA82706C3F48686778988E9D2E
:102B28009976764C32342D343D39392F357786B144
:102B3800ECC4BEBE98937E57718483A9ACA5B798A0
:102B48008C794C4F585A636A5A59506DA4A1DCF1DC
:102B5800BAC7C39FA082699CA8AACEBCC0B88C8DF6
:102B6800653F413E363C4937251F4B6379BAA585F9
:102B78008E6E595F464F74779CBDB2C5B08F8A631D
:102B8800515C5E5463624C404D84809ECA95969E0B
:102B980075747368839FB2DDE1E2F0CEC1AA807AD2
:102BA800827977806D5B40587F7CB7C79A9B7C5150
:102BB8004F2D1935466382829BA1868A765A6671A3
:102BC8006469654A3B2E61757DC1B29BA6887E7299
:102BD8004D577382A0A69DB49C84825E586A7A8EF3
:102BE800ACA58B7B7AA6A4D1FFD6CDBE918D6F4ABA
:102BF80062737C988E8FA4736C7D4E4B55536B68B3
:102C08004F4A27407667AFC8959D84616039326125
:102C18006B83A59293986163592F445F6E8B887478
:102C2800785F8CA9ADF9EAC4C39D867A56688B9003
:102C3800AEC0AEBDB38D997B5A6069798D73634D13
:102C4800448887B8FAD1C4B6897450263D50577560
:102C58007163775A46562D263F3F636E5457385551
:102C68009894D1EBC2C8AF8E966F5C878F9FBAAB32
:102C78009FA271717243505B6492906E5F3D718E3A
:102C88009CEEE7D9DAB7ABAB8289A29CB4BBA3A60A
:102C9800894C5E4B2C3F3743614230231B5555808E
:102CA800BAA29E8F6D7061496C7E8FB5BAB4C0961A
:102CB8007885574E5B5A8C93665F45678E86BFC38F
:102CC800A6AA8B71775969989BB5CBC0CBC7919849
:102CD80098707F7B85AF825949407F87A0D1B3A682
:102CE8009A6251421B324044698178786D506C6217
:102CF800495D5E89A76C543C54929CD6D9B6B59769
:102D080075795F5A78748CA9A79992736D79656102
:102D18006D75AAA8786E639CAEC7EECDC7BF8D82CD
:102D2800806A807D7D969D90876F515D605359566E
:102D3800657F4A231434707BB0B7A5AB8866675AA1
:102D4800657A7897ACA79D9268595F493D42427968
:102D58008951454A83A9CAF0DDDACC9C89827086FC
:102D68008992B1B9B8A98B696C796B646A80A783B9
:102D7800463561939DC4BFBBC2A3867761646A5F11
:102D88007783847D61423A4849323035586A391A26
:102D9800216586B4E7D0D8C890887F76948891B7A3
:102DA800BAC1AF7F6B6874735D606F937E5138569C
:102DB8008C9ABEBBB2C3B094918392AEA0B3CCC779
:102DC800C8A06D656973675554686F4B261B4867C3
:102DD80080937C857F5C4B3D466769708FA0B7B850
:102DE8009788829097786D748D8257324383A0BDFF
:102DF800A693A7967B6B57719588A4C1CAD7AD8453
:102E0800908DA3A683899FAA975E376B93B6C197C7
:102E1800A5AC87684A3D584E374B64787A4A38449F
:102E280045605C515E7C7B5F353E7C9CCDBDA8C215
:102E3800B58E745F72917A8091A1AD8D5C5E636D81
:102E48008778728A9C987C4F78ACD1E4BFBAD8C690
:102E58009F847297A68F90989C9B663D40425C71B8
:102E680065647A6E59301F5B90AEA27E889D805053
:102E78003444697269708CA28F59495864707464BB
:102E8800718E7E694A4A8AC8E1CCBAC0C5A37074FB
:102E980093A5A898A0C4C8915E637B8887959291F2
:102EA8008E6652444E88C0B69A93A2AD7A546B800F
:102EB800827F697A99834E282B424B435D6556473A
:102EC8002A231D2D82BFBABBB9C3B97A709CA3ABA4
:102ED800A896B8C99F775D5B726E7497A19F8D5E47
:102EE800503948A1B59EA8B8CDBF85818C8CA9A6BC
:102EF800A2C3C699745A617664627791896D3C223F
:102F0800130F6D886C7A656F7C4A3C424B6E6E6815
:102F18009FAE8B77616B8C867C9ABEC5A978635E01
:102F28003F89C3B0BA9E95AF7950616A92A093B5B4
:102F3800BCA8A48E80A6AA95AEB6CFC58A665C3911
:102F48005DADA6B3A385A377393E2C3A5E47597A7F
:102F58006862482A5664516B728C986A4F5A434B80
:102F6800A3B4C1C3A4C2AD696C6D6C826976A0A319
:102F78009A7F596872648698A5AE8B65755A65CC38
:102F8800C6CAD8BCDDC774797968846865928874C4
:102F98006955707B657986949D6B3D47244FB09B3E
:102FA800989C829B7F2E4551517659629F8B635422
:102FB8003D5B6959758E9EA474566459A3EACCC3C7
:102FC800C2B4BD8B5074716D836E82B39874675AA6
:102FD80083906D7B97A09C63575F71CFE6CECBCA79
:102FE800D6C67B6C8A8C8E7A6E8FA781503C4763DD
:102FF80053365A6E694A25283893DAC2AAAEC0C435
:10300800814C627882765C75A1956638374E4F326E
:103018002C495C4B1C00015BA2A08389B5C79A624E
:103028006696B09B7E86B0BD864E547D88725F5989
:10303800768B632B215FC3D49E84A4CDAB6657885F
:10304800B5BD978CC1E6D29883ABC9C7A5858E8DCF
:10305800855C4988E3FFDEB1B0D6C8794F77B4C53F
:10306800A38191B2B07E58679CB48C5C65695D3C65
:103078000E48A0D3BF816E8485511E1C53726743CE
:103088004B6773481A316A997D443C544C2C002391
:103098007BAFC2978CA8B19976648FAFAA8B7F99C2
:1030A800BDA56E72A2CCB486718D8E571F3E96CD8B
:1030B800E7CAAEBFB79B826D99C1B2A09D9BAC9C7D
:1030C8005A5286ADA58F7486874B181961959B9DBA
:1030D8008C8C895F4A384674735E686E63582D1C01
:1030E8004D695B574F667D47080039809DAFBDC06D
:1030F800C39C6F66748B8D79809A9A7D63445B87D5
:103108007C736A7A967E3D305BA6C2BCDFEBE8C86A
:1031180094829DB1ADA0ACC4CCAD867978A1937AE8
:1031280076728779391A2350908BB1E2E6E2AC8B3C
:10313800A6B7B2ABA1B1BB9F72645E7F8F6B717192
:103148006F66390D00134E584D8E9A8572464D683C
:10315800625F6E8AABB59174717E9C7D66767F7F67
:103168005C31191A3A6C6D99DECFB49483A0A5939B
:10317800999EACBB9B7674758D938493A7B1997512
:10318800584754757C8AD1E3CEBD9FA6B4AB9FAA9D
:10319800C1D3CFA78A8681817169758278573D1D11
:1031A8001631617293D8CCB79B78878A796E767E10
:1031B800866F4F4239444135374C5F4E3F230000FC
:1031C800193F4273AFA29C8980999B8F99A7BFCD65
:1031D800AF937D7C8D837A7C8A907F704B39486F62
:1031E8008D8BC2E4C9B9A0A0B6AE9DA1A7C3CEB2CB
:1031F800A69EA2A6927B83959486653D35425E6421
:103208006DB8CBB39A7A8C98817C7D7E9A8B625309
:103218004F615F3E324958503D1506162E4A3C60B4
:10322800AFAFA29084A6A7877F87A0B8936D5E668C
:10323800755C3738596A684E2B283F607577C1FE30
:10324800ECCDA4B4D5C4AFA9A5C3C59B86879DA35F
:10325800825E6A878C734C37485B767380D3EBDE6B
:10326800C6B6D8E6C8B3ABBBD9BB856A6E857E53F4
:10327800445E7464431D193648493E71A2976D3EF9
:103288004F777A69585072866B5A6485916F474CAC
:1032980069765F30142A4F655463AACCC8A6A0BFCC
:1032A800CFBFA691A1C1AE856C7B948E6D5D6D84F8
:1032B80083683F416F928F85ABCBD4BFA4B6DAE465
:1032C800DABDB2C6C7B79C98A7A08059505E6254B1
:1032D800270B2759707291B6CDC7B0B2BEC8C9A81E
:1032E8008D928F7C543640484135292E2F28160060
:1032F800002B4A45586E7A7F7D818B9CB7B69E9D80
:103308009D988B8186877B6F66676561563D345DC6
:103318009398A5B9BDB5B3B5AFB2C7D6BDB1B1AB7A
:103328009787909CA0A7A79A8D7A6C56475A838D49
:103338008FA1A29897A9A49FB0C7C5A8988F7D6DA3
:10334800706F646263564B3E31200F1A37506075B8
:103358006F62697D86828FA7BCB09A8E80787870FC
:10336800656873654B3621131521293C58717672AF
:103378008CAAB2B9C2D0E4EBD9B8A49D968981834E
:103388008E8F7E7263565F625357798A898D9EA6A7
:10339800A6B8C4D0E6F9F1CFBCBDB0A09790919281
:1033A8008B7B634A4B4E403E59665B6876767A79EA
:1033B8007877798487776660544A49535B636C678A
:1033C80059473C3C31273C544E5A72727C8A96A726
:1033D800AFBACEC4AEA3938C888B948D8680685880
:1033E8004A44443845656A6F8C9093A2ACBBC4CA02
:1033F800D9E1DADACFC1B7ABB3BBB5B39A79684FC5
:10340800463E39505C4E637E8397AABBD3D8DDEF26
:10341800DFCBBFA5958880816E62502E21160C03E4
:10342800000617151B3D4A516169798991A4A99F26
:10343800A19584807F8A8C87826A57483834323EC7
:103448005C6461758791A3AFBAC7CAD3D8CECFC41D
:10345800A39492979E938F8573726B605C545D6F93
:103468006F7A909EA5A8AFBECAD1D7D1CBC8B19765
:103478008F929E9E94836953412F29241C2D3E428E
:103488004B6471768492ABB7AEABA5A2A18A756B7B
:1034980070777364543D26170904040C2026294BC1
:1034A800636C7B869DC2D0D7DCCDCDBDA59E99A38C
:1034B800A694817362564B3D363B4556606C8BA192
:1034C800AAC1D1E1F8F4EEE8DBD8C9B5AFACAFAC2E
:1034D80094877861533E353E4B5C615E728692A557
:1034E800AEB0BEC3B9B5A89D8E776661656B5D4108
:1034F800382A1E1F1E2122203A4A517080818F9F30
:10350800B1C3C4C2B4A29C907F6C666B6D61554E0A
:103518003D342F242B333B4B596C869BACB9C1D51A
:10352800E4E3E2D8C9C0B5A99DA1A89F908A856D9A
:10353800605C59575F727C859198A0AAB6C5DDEC8E
:10354800ECDFC8BDAFA19083807F7563564B4333D2
:103558002D2F2F3743424047586A76828C9BA1A66D
:10356800957E726556516371706961534F554E442B
:1035780043434959676A75848995A6C0C8BDAF9900
:1035880090979D8A75757C7472746969685F5657DF
:10359800657384848CA9BAC0C4C9E0EAE6E5D0C0E2
:1035A800BFB7A59EA4AC9F91867268644C403F3F0C
:1035B8004F4B445C70768891B1CCBEB1A594989875
:1035C80083756B727057524A352D1A0200122930D2
:1035D800292E4B6678828EAEC6C8C6BBB9B5A692F0
:1035E800868A988E776B605A534937373B425560C5
:1035F800688092A0B7CCE8F0E3D8CDBFBBAD938A82
:103608008F948E89867765625E6978757C848295E9
:10361800B5C0CCD7E2E9D9C5B39E958F7669716DEF
:1036280061503F3B3D443B242A3437474F57788607
:1036380085898D9FA7A1988A7A766E554E58555CD4
:103648005D4D4E56514B4542444A58565D7F95A3B1
:10365800B2C2C7C0BAB4A9A3A89D96959090999FE5
:10366800958B837D6C574D475A717890A2A8B3BD4E
:10367800CBCDC5C0C0C2BBB3A5A0A6A8A7ABA69119
:103688007C634F443E38343E43516F7F82878F9D21
:10369800ABA89B9285756B5C5B5E565A5F4F453E47
:1036A8003628181B25314042517792A8B1B4B8B7D3
:1036B800ADA9A69FA49C8C89857E7D74615A554AC4
:1036C800372B2E384F6888A2B3C9DEE5E8E6E3E574
:1036D800E6DDCDC2B3A6A6A29D99867469594A3F74
:1036E800404A494B5A72899CA3AEBAC5CAB5B2BE04
:1036F800C3B89F8F867F7B796C56463A2C110000A1
:1037080000121D3655768D97929CAEADA2938B858F
:103718008178706B66626773655750443330333C09
:103728004B5A6F8098B6C1C5C8C6CFD1CFC3A8942D
:10373800857E8E908A8C7F79776E6B6265767D89BF
:10374800A0ABBFD1D3DBE0E0D5C4B2A59590866F1E
:10375800686E6D6763636763644F373D484E5C66A8
:103768006C7A878E84818888919188867968555388
:103778006366646150484A4D4E4849494B5A6360F4
:10378800676F7179868E9596989993989691A2A568
:103798009EA7A39F9C8B87756A74706B747A8595B6
:1037A8009DA6ADB9BFBBB7BEC4C5BBADADADACABD7
:1037B800A3938F7C6F6C5E585B5A646E6F7E837DBB
:1037C80076757B96A39C978C7F72676064615E5365
:1037D8004C53493D37385362666E615C6465759435
:1037E8008F8E9187847A736D625A646770745D5A9C
:1037F800605C69666978787F8790AEC1BABEBEB8EA
:10380800BAB7B6B5A69D958894A4A0A196899292B8
:10381800918A7E848E979A95999B9185868C8A87C2
:103828007F81868A887B686D7175867E7D7C695B01
:103838005452636D69615F686B67606160676B674D
:10384800655C463D385176787A7B76808079857DCF
:103858007A7D736D6D717272757C8081817D7B84D8
:103868008B918A82929C999D9EA5AFA497969AA3C4
:10387800AAA8A8ADADA5A8B1B6B6AAA59A959483ED
:1038880077797D858A8B908B86857E7A78706A6257
:10389800595E6E726C696772767575737E806C623C
:1038A8006973746B696C6760513F434749575C5D46
:1038B8005D60606674808987877D79878C8281885E
:1038C8008F8E868F9498A3968A92887E78757A824E
:1038D800898E9499ACAEB0BDC2BEBAAC9A9096A48B
:1038E8009C9FA39999938181827A80858586898D09
:1038F800908F99A3968A84776E6B665A5459585458
:103908005D5E5959524D5154555B636861646A68EC
:103918006A72797B7E807574796B646A73706E6F76
:10392800676D6D626067707174767E88909DA2A4E1
:10393800ACAAA6A9A49CA2A29B91989FA1B3AFA749
:10394800ACB3A59DA09D9B928C8985817E7D869137
:10395800908C8C838588848C9393898A8F8E8A85B2
:103968007E7875685852474B554E5359505A605097
:1039780052535E6C5B47424D5D6E77808E938A7EB4
:1039880081837D81786A70736C6663627383837DDB
:10399800737E847F8B9098A09E99969E9E9A96930C
:1039A8008B919A9398A3A8B2B8B1B1B1ACA5A4B0C1
:1039B800B3A59385838B939F9D908E887F80756E2A
:1039C80074716A676568695C5B636977786E74703F
:1039D8006D665F696966655D59615959513F424431
:1039E800474F556772717E85838A94908B8780785C
:1039F800706E73778C968F949493908B89938C8147
:103A08008289999E9F999397A0A1A5A2A29E999910
:103A180098979C9E8F959DA6A38F80828F9D9D9C35
:103A2800A7ACAC9F9592969492887C7A6E59494639
:103A38004B595D5755525657505052504F50566239
:103A48006B706D605D6A6C6C6C6C6F6E6A6C7073B9
:103A58007F767886807774686C7077898A8D95957B
:103A6800929189989EA09E989B9C9589929FA6A2C8
:103A7800A1AAB3B1B4ACA09B96897F7E86918A8DAA
:103A8800877D868C888C979CA0958B969CA5B0A6E4
:103A9800A29E8D75614D484746555F5F5D564B4CFC
:103AA80052555E5A52585053544C515C5E5E646B8A
:103AB800756E6D736F747B7B7D7B7F8183807B7D6F
:103AC800899FA9ACA6998A7D7881888A8F908D8DE7
:103AD800867D7E797D889BAAAEAEB6BDB8B7B1B3F8
:103AE800B0A49E908180797D8C91939D9D9E9F919D
:103AF8008D827C8590938F88807D6D635E54596735
:103B080071706257534B4B5E62676B5D5F666660B0
:103B1800554F5659565D6464635E5F6870797B7C67
:103B28007C7570767871829DACB6B5B0AE977970B9
:103B3800757981808A908E8D838690969FAEACAD84
:103B4800A69A9F9C97A3B2A8A19A8F907F73818809
:103B5800919B9EA7AEA19697919DB3B99C908779AA
:103B680071574D3B4150454A4D4D473B4B534E4A8B
:103B78006B755A666B6C6F6E787F796E73746C5C5C
:103B8800535C6675798893867374827F76686C8BCC
:103B98008F8FA19591908382888180818389858E7A
:103BA800949398ADB8C1B5ACAEAAA8A8ACB0B19E74
:103BB8008F867B6A625C6368778D9FBBBBB3BEC42C
:103BC800C0C4BBA2989A92856447404347402A18CC
:103BD80014171B2E414F81A79A9AA88F79643C45E8
:103BE8006B61544D5984886F71808E97723D3A3756
:103BF800393C3854A1F2E5C9CCD1D5BB7746626DC2
:103C08004D2D34759C9DA6B1C4D8BE7353606F7298
:103C1800676C96EBFFF1E9E3D9BE7F3B38575C53FD
:103C28005A8FC8D4D4C8C7BE9D5B262928211D2D0C
:103C38004CA0DBBC9F9A8D683E150E40686A789749
:103C4800D7F6C397928A703B000002101E2F548942
:103C5800CED9B09B9B83644D39558EA2A0A8C0E1F4
:103C6800E3A77F7A5B4228263B3C3F5486ACCEEBE9
:103C7800D9C5C1AE89786F6E94B4BBC5D7C9C19D8B
:103C880058494C473F44545C606691C7DCFCFFDAF6
:103C9800B6A37E554A43506874717775606347339D
:103CA8003E4E535B6B68626582A1AEB4CFC799790B
:103CB8006950434945627D83868E87938B554D585D
:103CC800545A645F5E5A6E92B3B3C4E0C091706098
:103CD8004E544A4C84B1BEC7C3C3E2BF7C737781DC
:103CE800938467515C7E8E979ABECBA16D5A5255CC
:103CF800655777BAE3DACFB0AFBF8152474E6364F6
:103D080039141B4B7275749ACFBF7D464055786C39
:103D18005C86BCC5AD8C7E9E864524375470683B56
:103D2800234D8D9F998FBED2B37955597283696C93
:103D380099CED0B37F7F90613930496E876F424406
:103D48007BA2A9B6CDEEEDBD815F6888908BA5CE2C
:103D5800D8C8976D847450454E678382562F4B841C
:103D68009BAEB1C0BA9361342955747584A1C6C598
:103D7800B28684896A5454596375541B1D4F7081E7
:103D88008BA7BBA8825D4A577D8C96A6B8B9AF852C
:103D980066735D45435865838B5B374F84A5A9AA35
:103DA800CDC9AD7F565065818FA0BDD2CAB081877D
:103DB8008768617079838A622D2A618CB2BDDAE7DF
:103DC800CDA5745C64858D8A909C8D8159475C4E25
:103DD800444D5B6D836A44375F98B8B3B2CBBB9AE6
:103DE8006B463A4C687A819BABAA9F858D7F696345
:103DF800676A787E592D31608E9B93AFC1AE7E5035
:103E08003D436A8A8997B1B3B0968F89746D788774
:103E18008D9B84583E5986A7A8A5BAAF925C3C36BC
:103E2800548194A0B1C2BFAEA4A89888817D7B803C
:103E38006F4D2D306286917F8A9E947A5A414673DF
:103E4800949D9AA6A8A498917B61564A505A68599D
:103E58003D264171999BA2CEC9B99F78545C87A031
:103E6800A5A8A79A9AA38B695F565B636552331F0F
:103E7800286297A698B0D2CBAA82615889AAB0B115
:103E8800B1AA9AA59A736054455155545144516F3B
:103E9800A5C1AF97B9D0BFA26E45508B9F9D8989A8
:103EA80081A1B47F53485366878171523D44769807
:103EB80094757FA4ABA06B3A34638DA5A1917A90D9
:103EC800AE9985706C696C5C585C5661799CB1A937
:103ED80094B0CCC298603C43718E999A8A8EACA5F6
:103EE80085767877716A584B4E61738A947D8083A2
:103EF80093A9A08D716D8EB1C3B49D8692A9937F4D
:103F08006E695B4A414950546B7C7875686E87A22C
:103F1800D0D8BA7B514D668091948088A7A08E8AAC
:103F28007C655B595159596574797C7268595F9CF5
:103F3800C8BA8F60556C8CA0A29793ADAE9E97853A
:103F4800776D77788E875F5D707F827A543E63AD38
:103F5800BEA37946426C8D9EABA9B6C1B7AF9D8012
:103F680069616D706E65544C58606E755F5887BA9C
:103F7800BAB1846C7999B0BABEADA99F846C59471F
:103F88004B565040433D556560766C5F6886BAE590
:103F9800DCBF988184A7B6A592847C6D6E4E444C94
:103FA8004A5960615B6A7C8A9C9E908A8E848EB234
:103FB800C7A88873668BB1AB9280685D67605264EE
:103FC80070848E8B8C7E7E8B898E806A7C686A7703
:103FD80078858E877772798E929EA1A1A7B0ADA1C0
:103FE8008C968C756961383C58485040434A6D63DB
:103FF800687DA5C9CAB1909C929193908BAD937A34
:10400800726D71877A5C7A4C4B6A5E6484817989B7
:104018009A9599A590B2D1A87F705F91BD977B635F
:1040280061575C3E2A7484818C81708AA19DAFBEE1
:104038008F809B74648665437F7C748784668FAFAA
:104048008D988D7A7991786F7D7466817B737B6E9C
:1040580086A89A78815C607F816D7174779998825F
:10406800726564829A7C788D87B994667B80749730
:10407800903E5C5A4C92BC9C8C997379A6B39C7DFB
:104088007E6C7E775F7878796D7B94848564798F90
:104098007A8B6A756C5C6D7398A2898782809E9210
:1040A8008CA27A658A897C8B7B73A79D828B9F8182
:1040B8006B5C4F8886867D7181817670554C665D14
:1040C800656077758DC49D98A4B1AFA18A6E4F5570
:1040D800787D716C7870878E90868E7E494C6A9D4B
:1040E80096886C6C7D9DD5C6A485919D997A8A83A6
:1040F8005B6C735138577856566F5E6476869DBDF3
:104108009B7A839288C1D7A2957A5F7399877A8AB6
:10411800666082707A929474847D6375646B84831C
:10412800766D6B918A839765456E877E917E535C29
:104138005A83AAA07D79998A70A87664C0A09384CE
:104148006B4AAED1747B905189BF827F96746DADF6
:10415800725C4B563A668A7C7A7066879F78928D35
:10416800A58C825653859F969F562D909B93BB8214
:10417800388CA98B8380729E9A857F948D748C79F4
:104188007C7A6A71909696917F6593727E7D595E6E
:1041980039536C8155684184879CB4909F639D73A3
:1041A80092A591599AB6638C8B9E9CA6877F7D8732
:1041B800946D71928E736877636E8362869B848830
:1041C800824B6690867160765B5E848F7D73565EE7
:1041D8008092B69C7C7298A8C8A57B929FA6898D70
:1041E8007C7C839D79A79995A65C8B6389828B9744
:1041F8006E967C5F686C70627987878F937B6EABF5
:104208007C9B8682837B7647718C765E83808D8DDE
:1042180077646562747C6440698D837E80716D7992
:10422800547384815B5C675E343532465A40462E4F
:10423800392B64756B9087688A9EB0B9B9B4A4BAF3
:10424800ABAC78A39B97A491889DA77FA89DBE85BA
:104258007F6F7188587E93DFAC81663B717B8A756E
:104268004E243B403A584E57515341779A797868D3
:1042780072AFA8A0C2A4C8C1AAC6B7A18AA3AAA39C
:10428800BB8E7B95ADA8AA99909893D1ABB7BFBCCC
:10429800BDABBF88A6BAA27B78797868546F4F49BE
:1042A800373D656C665D59787B85746C7474776C82
:1042B8009880AF98858499A86E989C925E6F8D7D42
:1042C8007B718A988E746A77758887737CB6AA8C96
:1042D800958E8C9A9A8A95868B5A727F859B8D715A
:1042E800849370756C7E5C785C556A6E6F3A517019
:1042F80085837D789B71323470836F501D38487385
:104308005C60676779868D7B9A778282ACC29C8B6A
:10431800628D9682826158898468989F83828C779F
:1043280091A971798DA57A709374828A998C749603
:104338008F6C63716C62736B594A5F36225B557080
:10434800685F6465856E5A89967C7E6B7D88878AEE
:104358007C7F8CA3A08F8B9B8D8B817D9C8DACA546
:10436800737A8F89868F909391A591A2B49E838149
:10437800BBB2918383899A7762677F6A44617C873D
:10438800575C6F88654F444D88797775887A76775A
:104398006C97A77F69657A8383607DC590566BBDEE
:1043A8008A6F84A2A689A7ADC8BEBEA09FABB89FDE
:1043B800779D908C8E8670867C52649694587993FB
:1043C800968368758195776D9395776E6F6F867311
:1043D8003F478763465A5652597A6E8F9A75656970
:1043E8007B78888898ACA38F95AFB0AA7A6EB29282
:1043F8006A896F708B99868CA07A7472829E917884
:1044080087A59E968F8C909F85709283696F787F21
:1044180076646189A16640738669606A6E787B6F8D
:10442800787A6D697881838B83687C8D7D6C617106
:104438006F5A58778069677289957E88A6A57E71BC
:1044480091B0A690A5969D9B87818D886A7E8D8563
:1044580081757D866E6D83935858848386726A85CC
:104468009678819B9882798B7B666B625E55464B0A
:104478005362505C6F6A5E637B868C7D7482968E15
:104488008D9FAD9193A48F8C8C73728F857B8A9945
:1044980084968C808F797073948E8A8C918A939786
:1044A8008CA7958A8C86717274626469605F696B87
:1044B80069626056647172777D80898679838B81A1
:1044C8007D919981747B726867737A787D89867724
:1044D80072767F7E7D909D98989FADAFABADB3B857
:1044E800AB9D90868373706C635C5F5A4F605C4FC2
:1044F800575E6B747E939E9E9CA5A4A1A193989EE3
:104508008F81757165585D6460544E505C50516080
:1045180065646E85979495C3BDB8D3DBD6C5BAAE2E
:104528009D8A756459554838453F394D5A635A58DC
:10453800687291B7B4B4C1C0ABB4ABB1AD8C999645
:104548008578746D5C4A555C3F445F4D56565E5D98
:10455800679F9EA6C8CFB5B6BEB4A8BDAE9A8F78E1
:1045680068635A414230324040404B48415252857C
:10457800A996B8CCC2BECAC8C5B7C9BD889C91683F
:1045880071846E5C5857555351584851554F8B9804
:1045980089BAD1C3C6CCC8B2AFB8BC7E878C4F54D9
:1045A8005D4F4042353D3D364334333D537A87882D
:1045B800ADB5A4BBC2BBB6BCAAAC968299837278CF
:1045C80072696C61685C5169593F5E738096AABED6
:1045D800BCAEBEC3ADABB6999AA17F897657594D8B
:1045E8004553484A4C32474E42606C7F838FABAA92
:1045F800999FA79DA7B9A299A07E8A7A5D65645CF8
:10460800594D4F5D445167596C8890A5BDBAB6AFF6
:10461800BDCEC0C5C9A6889C7F768265555B5248C9
:10462800413F513A3F5D4D5A7880809BADACB6BF53
:10463800BEB1AEADAA9BAF89647B735E574E393E5F
:10464800485B5E4E5A5A51799F9AA5B6B2AFBAD016
:10465800C4AFA7AD93919466685E494B4F4F4E55D2
:104668006757556C69637C978F9DBCB9A9BABDA67D
:10467800A9A8A38A7F81555864494C605C5D7284FF
:104688007A7078786E8FB0A2A3A197949DA99C9711
:1046980090886E65714D48544E626C696964625CBD
:1046A8005F697F7272867F9AA8BAB9B3B8B2AF9CB5
:1046B80098857D908A8E9183776D68697070604B5C
:1046C800515F597780728B93939C9FA09B94979F7F
:1046D800999FAE867772545C575547484940343C99
:1046E8004F405D6F7A92A0A9B2BBC2D2DCDDD4B9CB
:1046F800A9B28D828469686566554F4A3B2B3F4B4A
:104708004B76728CA09DACBFC9CDC7AEA6A5988BC1
:1047180081616355414C4C47383C353B4364676E77
:104728009893B7D0D3CAD2CED0CEBAAA8D796E6CB0
:104738004C6053333E433D3C4B5250516F6B91A4F8
:104748009EBECED6D5D3BEBCA79989827970604566
:10475800614E4756595352576466757A76A0A0B190
:10476800C5BBBEC9B6ADA99C8E73756A745D53622C
:104778004B515353526068574F6456647C7FABACBF
:10478800A5B6BAA4ADA89E95807C8289687A8A87E6
:104798008E8B8167696850586E6079767EA6A49F73
:1047A800ABAA8C9D908474676E828F8092857064AA
:1047B80069614F5D522D47535A7E769EB8AAB2C39F
:1047C800B0A3B0A3A29C8F848F847C90816661641F
:1047D8004C3D503922424366787EB1BDB6CBDDCA26
:1047E800C6BBA7908B8680876F7181634F56513CFB
:1047F800343C23334551827799DFE8D9E9E3CCC9C2
:10480800B6A37D737087755277765751533A2F3810
:1048180026192E2C5F857EC9FBE8E1F0D0BBAE924D
:104828007A6A6A6C83696A8C7B646A6E49312F166E
:1048380031566EAFB4C4F7FFE1D9D3A8907167536E
:1048480049526F7A6183917147463B2A352E3C5C09
:104858006392C1C0E6FFEACECCBA97715E594F5851
:104868005F847B5F7F7E5D52544C3E4339506F7846
:10487800B9D1D8F3EDCEBFB29376545755515F777F
:104888009480748D836A594B3433403465768ACD6D
:10489800E1EAECD9B3A38E796852575A607897AB9E
:1048A8008A849C7A564A4A2B33353C7683A8BFBF04
:1048B800C9BAAA988563504E5165718196B3C4A848
:1048C800ACA9875E4E493F59405B8C99C3C8D2CF8B
:1048D800B28F7E67534A3E4A5D7199AAC5C99F9BAC
:1048E8007D5A3F3D3339483D7597B0C2C0BEB29935
:1048F8007C775E4751647D96ACBFCBD3AA9387651E
:10490800433933304833548A9DB1B3B0B4A883795E
:104918006E5C607690A4AFC4C4C4AA7E705640246E
:10492800231C3339316A90ADC5CABFB49C85806FEA
:1049380065819CADB3BBC5C8BE8974664B2A1E2071
:10494800233E345388ACC0B5B5B29775706C6069B6
:104958007E9CB9B8B2B0B4875A57513B262E2B5417
:104968005D66A9CCD5C9C3BCAA887172756B779FDF
:10497800B8ACA3A0AD9E625B5D4824232745564F83
:1049880085AFC7B7A79CA08D68758C766C8BA4AED5
:10499800A29395A86B44504A2E282A4775628CB674
:1049A800D6D2B8AFABA47B7484837691AFB9B9A0E3
:1049B80097B3894C4A4A3022182868555E8BAEB99D
:1049C800A29D9B9D7A647F937E83A3B4B8A98CB083
:1049D800A758485357443E3268736B9BB2D5BE976D
:1049E8008D9B865A6A7D7C808EAAB9B48690A96D03
:1049F8004645513F3B1B41746486A1C6D4A8899D96
:104A08009565596F788D8C96BABE9480AF8C5E4C44
:104A1800515C633B337D6F7FA2B2D8C17E7A8A77BF
:104A2800616F819BA48FA7C0AC718A814F443643C4
:104A38005541155568679297BFD29B7B8C86716CE0
:104A48007B93B3A3AAC3C39690AA7B6B52475A62BF
:104A5800252D65597B879DC9B28583867B727A89A6
:104A6800B2B59EB5C2A77F9F7B52453038513E15DF
:104A78005B5E6F8F91BFCA977A87777776718BB6AF
:104A8800A2A5C0B9898C9A67654C45565F2C3B69CD
:104A98005C818BAFDCC89B9E8F81847A88ABA8929F
:104AA800A7B09A7E947355463440563D184E5A7AAC
:104AB8009497C8D4A08B90736F6E6D8FB29DA1AF81
:104AC800AE847D8F635B4845555D33466A6C9F9C19
:104AD800B6DBB9929E88707C7688B2AFA1AEAD9DE8
:104AE8007A917E584B364C5C40274944678C94CC6D
:104AF800CC9271756B76736E92A79BABB2A8887CCB
:104B080093786C51526359415975739A91B3DFB7D1
:104B18008782736B6B668AB9AC97ABA2957E8F7CE4
:104B28005C5240576146264B4F6F8990CDC893829F
:104B3800867C7B666C97B59B9EA1917D708E756413
:104B4800576272715456716B8E94BBDDB69086763F
:104B58006D5E4E6CA8C2B0B4988D778790684F424E
:104B68005E675D384B485D7D8AD0CD9A776D6E7FE4
:104B7800696080ABAEB8BC9F8466898576666A76C4
:104B88007C5C466857717C9AC7B38975635D6257C8
:104B980073A7BBB3CEB9A386859C796558666C6E3E
:104BA8003C3E4C48737BBACEA5826C626D67627FCF
:104BB8009CA0A2B4A19B72858D6961606A6D6D3FEE
:104BC800605F677E8FCEC9AC8C71636A626A98B980
:104BD800ACB6B292897B99895D51525C785D41652A
:104BE80053728CAAD1BA9A80746A6D575B7F9C9F66
:104BF800A690807369917059626A7582565267628D
:104C0800898CC2D8BF9D7D6969705C7D9CA6B0B750
:104C18009C96808398715A626E7A77404D45547E8F
:104C28008CC6C69E795D475D594F7CA0ACB7AB87F3
:104C3800836D88936E686B72866A4B63517F97A405
:104C4800D3C49E8068586C637096ACB1B8A48D8A42
:104C5800789F8F686C68707E45303E3A7789A5BA30
:104C6800A88B7661596253698BADB4B99D897C80F4
:104C7800A178625E5E7877474D4B66A3AAD2CFB023
:104C88008A6E5D63697491ACBFBDB9978669879771
:104C9800615A505573573138326C8DA5C2B3A4850B
:104CA8006E65716A7389A0ACB2A081675E958B72DC
:104CB800706074894C3D464F98A8C7D2B99F765505
:104CC800505B6386A4B7B7BDA18E7B799E7F6E616A
:104CD800597A733A434567A4A4C0B79A7A5E474A9B
:104CE8004E4E7092B0C0B286725783AE8983707789
:104CF800997E45473F6AA1A7CCBB997D5B45586023
:104D08006C90A6BCCFBD9B906A90A279745B6380BF
:104D1800683E39317298A4DABF9A79593F4A545F8C
:104D28008B9EC0D3AC8C724782886770505E806857
:104D38003336326F9AA7E4E0BB977B66828592A0F0
:104D480097CCD5A7846D3B73875A675E6B9284397D
:104D58002F21508AA6DEDAA88E5B3A564C5A848FE9
:104D6800BCD39F7F6950619171767976A2A368441C
:104D78004D5091A8C3E5C2A2764C4D595A6E96B3D0
:104D8800D3C2937D62416D8B7C9D8F9CA4783D2B13
:104D98001C3A8187BFDBB288572B3642477698ABDF
:104DA800CABE999769517D9386A799829A7F503494
:104DB800333D829FCAFFE1B5844A49627494A6B123
:104DC800C7BD926742253C798586745372694C3A0F
:104DD800353F6393B0F7FED3A34E2D50565F8191B4
:104DE800B6CCAC855E424C6BA2ABA4876E75696885
:104DF800545A667DA3B7F5F9BA885537405A627B8D
:104E08008D9FAE98845947556E8BB7B0928368646E
:104E180061584244396583A6D8B7854729416F7FD1
:104E280096B1CADFDBAF906D50546B9FB0A89D7FE1
:104E3800706D6357474A4478A4DBE9A1703D314758
:104E4800646A8E9FAAD1BD795B40446574ADC8BBC6
:104E5800A4714A4D4946455A6085B4EEFFB072398F
:104E680028517479929B96A99D6E544F6894A6CD4B
:104E7800F1D9B7854A3F54615B6250759BBED487B0
:104E88004C212752869285919DB3AA8E63565A79F2
:104E98009191B6A38A6D495457717D826F7090A71E
:104EA800D0B180554C64899B8D8A98BDBDA1795B32
:104EB80053677C727F99939C6F4F5C697E745F3BEC
:104EC8006384C5F1B0754546678A807F7B84AAA054
:104ED8007C5B4946708F9FC1BEB293594D555B6349
:104EE800644A5686BBFADE96583F5887A99FA7ABF7
:104EF800BFCDA5764D3C51787F9AA378704A2D385E
:104F08004250595D577DA5E0FFC57B3D2D5B979FBE
:104F18009EA5B0C3B885593F35617E8EB3A58883F9
:104F280050425469727A705F93C1FFEDA763273AC4
:104F38007DAFA99F8E888A856D47344885B4C7D4CC
:104F4800A379653E464A5A544B4A4D7CACE2CA8E18
:104F5800533A5992B2A6A38E99AA9C866F5661902D
:104F6800A8BEB78A724F3346545F63675F89BEDE57
:104F7800FFD183351436769AA1A1949D9D947C62C5
:104F88003E447799BAAD79614045677887867F78DE
:104F98009CADCBCE8949161744849CA59B878D94DC
:104FA8009D8D65537B99ADD7BB856B526880868193
:104FB8006B565A8698BEC18C61373C619AA4988218
:104FC800727A79877E5F4C6687B5DBAF826341482A
:104FD80062747771666C90B7E3CE9C642E32608FF2
:104FE800A4A1786C7785998F67587388BCCEA27E08
:104FF80059425983969089737D98BAD7AD7F380CFA
:105008001B528A9990777A8AA3A9966B565F7BBAC6
:10501800BB8F6F453C5A7C8F8973576180B5CEB082
:105028008F543D5996BDC4B48878808F94814D3D86
:105038004D76B2AF9F7E484061899484685A6C8DE2
:10504800CFE2C283312B5994B6BE9B7769708F919A
:1050580071453B4C8BB9B39F5F2A2F5B929C8D7631
:105068006878A6DBD7B1581C225397BCC9A6827AA8
:1050780090ADBA986E5559889AA58A45222E638CA8
:105088009787696977B8DDCB9C431F306FABCBB985
:10509800937668839A95744E396597AAB17D3F2FA8
:1050A8003F718E957D6A769BCED1BB6D342A4E9525
:1050B800C6D8B88B635A6D82827763759DB4C9AEC2
:1050C800805B4E667F938A736A759AA696622E14E1
:1050D800255B96BEB5A08375778E9D96847E839852
:1050E800B0987B64575C65756E686A87B3B9A76BBF
:1050F800392432629EC4C4B8A08986837D777688B5
:105108008FA1A98B725B596474817A8690B8D3C4D5
:105118009B4D14093066A4B9AC9978717575695EB0
:10512800728096A59A875F515A728484867B96B856
:10513800C9C086400E1E4F92C4B8A2877B8293983E
:10514800897E6E8194959F8F684F4F5F687D89989F
:10515800ADAEB2956945485E88C4D0BE9C7F6F6C81
:105168006C6D6D53575C5D767E72564B3C466B8D0D
:10517800C4CFBD9D6E5C546F91B2BFC5C4AD9E9047
:1051880087748486736F4F3F435365696A4E5770BF
:10519800A5E8EFDB944D33507EABCDBA9271606ACF
:1051A8007682919183847568685C56585E48545C31
:1051B8007CB1BBC08F6840345889C5CDC69A766922
:1051C8006C92AAAC9A8768616871745E5D5260756A
:1051D800A3D4CCBE8E5E31395F87AFADB0A38F82CA
:1051E8007D8189938F8467524F56565A46344F6350
:1051F800AAE5F6E9A25E38406299B6A98E73686A94
:105208006C7A857E7B6356596373777C65656B9191
:10521800D1E8FBD2915C3F517CB4CCC1A0696061FC
:10522800627F887F644C45536E7C876E545963A0B7
:10523800D3DFBF87592F395B8DADB0B2825F5E7403
:1052480097A2A5865A464B63778C815E5D6790C2AC
:10525800E2D4945B34395695C4C8C49B6B5D71978E
:10526800A7ABA27558525F71858671675F8199AF48
:10527800B5784C31335384B3C1BE986943487A8DAD
:105288009D9C73584F5862737B78838DC2DDE1D93A
:10529800935F43435988A4ABA67E67484B7A888EB0
:1052A8009184716465616A72767F8EBDD5E5DD9EF5
:1052B8006743425F85AAAD9F774C24255865797866
:1052C8006760637979837E717589BEDCE7D08F5D0D
:1052D8003B3E577EA3AEAD997A5C6B888B9D967FDB
:1052E80077706B696C65595C6FA4C3DFD695653EB2
:1052F8003C5283AAB2AB896652687F7C8D826C6B04
:1053080070757777624E495381ADCED19B724A331F
:105318004579A9C1CDA784796C77818D8A726B652F
:105328006872786D61656596D1ECFFDAA66F342EE8
:105338004B769CAA927D785B536269787066656348
:10534800686B59555A6680B2D9EEF6C4945A363C01
:10535800618FA7A793825C465D64738473747779C1
:105368007F78686467719BC8E9FFEAAE77392336AE
:105378004F84ADC3BA9B7359687085857971635E34
:10538800586358514E5579A8D4ECDB9C6637172AD8
:105398005281B3D0CBB3926F6F6971948D9A8A6E34
:1053A8006A5F524E5458718EB7D5DDBD8E5F333863
:1053B8004575AFC2C9BF9F75635E57707E8493837E
:1053C8007C7769646964686E769DB5C3AE8C51203C
:1053D8002C3E6B9FC2C6AC926C5E64708B8D8C91B8
:1053E800868893978C7C6A676E82B3D3EED29E725E
:1053F800321D336393B8C7B5A3877B8B8091988C94
:105408008B838A8F9179634326395187BAD7E2B45F
:105418008757312B3A6993B4B8AD935B4F433E59E4
:10542800595F615859594E38281C1B35568DB1C8DB
:10543800CC99703D2025447EB7D9D4B98A564749BE
:10544800556E6B72756C7078827B7D796A6E80ABF5
:10545800D3F0FFDEB98462667AADCDE1DBB9915F46
:105468004D42415253555353565B5D50473D34327C
:105478003E6FA9C9DED1B59974656E86AAC7D3C730
:10548800B28C777E74828F94A29895989697928022
:10549800747A7C8EBBDEFFFFEAC99B6B5F5F7697F1
:1054A800A9B0A88F685653515548525F58616D731B
:1054B8007C776653454A6C9BBFE5D2A67C3C21218C
:1054C80039699CBBC0C3A880634D576B81989CA069
:1054D800A6A6A3A08C745F51587EB2DDF7D5A3753C
:1054E8003733435F8FB2C4B59B71544C4A606C79B3
:1054F8008A77625C515D624833242035689DC5D344
:10550800B4814E1E1625476D85A1A59A826E6261EB
:105518007180847D78797E84999B89745F5D72A699
:10552800CCE0E5B9865E414C59789DB3C7C2AD8BD6
:105538006E4C4756565F6665687377807B684A3756
:1055480037476D8FA3A28C7E614552617B97ABA7CD
:10555800927E58433F5372878F8F7E7B8689928FC6
:105568007F6C67607EB3D4F3F3D2B78F7C7E819C67
:10557800AAACA69F887268626D787C777161636B4C
:1055880074777061575C5A7695B2C7B99F7D61642C
:10559800616F8693A097896A605C5D6767636261E3
:1055A800677279929691847C7885A6C3EBE5CAAF39
:1055B800817F8494A4A7AFA18E786C5E697B808A72
:1055C8008D8D8E8883878075665B586A96B8DACD2C
:1055D800B0955E4B4F65787D7D706154473F4C6751
:1055E8007A868E84807D847F6A61544E56789CC307
:1055F800D6BBA683635C61889CB1B8A7927D898A73
:105608009FA394938083808393867C7170799DB7E0
:10561800BDC8A398744E4C4D6174918E8B85686497
:105628006056565E665B5C5D6C6C53565560678968
:10563800A0A6A2877D6A6A66717E859EA0A19B88C6
:1056480077757D70787B869B90958782818698A7F1
:10565800BEBAAD958569617683A6B0B8B5967C6EFD
:10566800736A5D525C5F585A57635244443D577899
:105678008EA19D876E594A496283A7C1B2988879DD
:105688006E665B606F606664595B5362637191AF6D
:10569800C9D0C3C0B493968E9DB2B7C0C4BEA895F6
:1056A8007A716A736F6D6C595E514348486685A07C
:1056B800AD96977E71716E7F817F777C7071776709
:1056C800665B574F494D4C55524E596789A0B0B14A
:1056D800A4A39B968F98A6ACAAA8A59499908B8E04
:1056E800868B7D72625A63636D7085A2A9B2ADA57F
:1056F80098908C89A3AEAA9E948573745F595E674F
:10570800614E423536324049608C9DA99C8F816D2F
:10571800756F7C939FA5A4B0A699836A61676F6D26
:105728006B574A4039455A86A6B9C3C5C7B1A99C23
:1057380097A4B2B8B2B2A9A28C7C716864626A6D8F
:105748007370655B5A6E7B859192948B847C7C7BAD
:1057580080897B7B807D6F605856524C555C6467AE
:10576800656368818A8E8F898A889195969CA9B588
:10577800AD9F99998E736B6A6A6B6A6A6C797C853E
:1057880090A1A39C979C9A919E9EA5ACB2B5AAA104
:105798009F978470635B594F463D2C353B435D783A
:1057A8007F76787C7A75869092A0A6ABA09793872F
:1057B8007C747573767561564D49433F5166767DA5
:1057C8008892929496A7BCC7CBCBC9C7C4B0968B16
:1057D800908E8B8D878071645954566264605F60C7
:1057E80065646D788EA1AEA7A2B0AA9D846F696525
:1057F8005554606257494340454E63656067686F1A
:10580800736A7B94A6B9B7C6C8B7A7948D969483D4
:10581800858581706E6D6763647471777F7C7E7E29
:105828007C91A3A8B4BFD6D7CABFADA09382716B31
:105838006F5E483A292931445147535E5A6A717755
:105848008D928A90A3ACA9AEAC93898D867C7E811B
:105858006E5D534C473B3A3D4762737F9196A3B7C1
:10586800BDC5C9CEC6B6BCB8AFB6B49A878E9B9A2A
:1058780092836F5B575756525150566D717E8B9875
:10588800A1A3A99E8F887E6F716E64676F66605E44
:105898005A544D49423B474B4F636A6C7489AEC7B3
:1058A800D3DBCAB4A59E99908783908E868F928108
:1058B8006F66656A6B78827F847E8896A5B1B5C36A
:1058C800CDCEC7B6A097846F6A6962575652403CDE
:1058D80044382522293A5459565C6B7C92A2BABBAB
:1058E800B0A99A9D9F9B887F827A726C625F575D90
:1058F8004F44555B6371868CA0B4C2C8D3DCDAD838
:10590800CFBFACA79B9EA39D9B9788756D6B694F76
:1059180036372E22343F4654586E8599ABA39B9D4B
:105928008A898C7B757771666C756F636271756E29
:10593800644A3939424A60828F9AA5B5C0C2BFBE4F
:10594800C2C1BDB3BDB5B0AD9387777081817D818C
:105958006E635B50403B4666828A9D9A9D9B969AF1
:105968009F9F9A9A8F88868478605756554D505EC7
:10597800605A574D44443C424A688788919B8F95AA
:10598800A4AFBDC0C1C0B5A79E968A8987746F743D
:105998007D8D917D736B6D726463726D6D7D818E8B
:1059A800989BAAB7B7BEB8ADA99593937F7876664A
:1059B80059605D584B41403F4248504448453E512C
:1059C8006F7981939FAFBEC4C4C0B3A1A39E989DB5
:1059D8009E9F897667655A4F5357666A65696B5704
:1059E8005E70818F9AA2BACCC2CABDAFAEAAB3B557
:1059F800A9AFA8947F6D5F524547464142443F3462
:105A08003A3841536573828391989EABA2A7B2B28C
:105A1800B2B4A1A19D908574685B5449494B423D3D
:105A2800373B504D597B98ABB1AEB2B7AFC7D8D65C
:105A3800DFD9CDC2A89E9A908A87786C614F5B5651
:105A48003B312C2D414A56707D87918E8C9195A9BA
:105A5800AD9DA9AE928C80737B73706D66605D4D51
:105A6800545B4A49413346594D606F85A1AFB9C26D
:105A7800C6C4BEB2B9C0AFAEB79F9097958E8A7EA6
:105A88007F79717767555248495E5759738B9EA540
:105A9800ABB3B6A9B1B1A7A68B737A6F565F6D7217
:105AA800686159534B4A483E3834364B6B606C83B7
:105AB800888E95A0AAB0ADB6ADB0B19F99968679FB
:105AC800818B877C7B858784887A685D67768B93F2
